{
  "address": "0xad994dedaab665ce5aad2a333253e30708087149",
  "abi": [
    {
      "inputs": [
        {
          "internalType": "address",
          "name": "addr",
          "type": "address"
        }
      ],
      "name": "InvalidAddress",
      "type": "error"
    },
    {
      "inputs": [
        {
          "internalType": "uint256",
          "name": "tokenID",
          "type": "uint256"
        }
      ],
      "name": "NonExistentToken",
      "type": "error"
    },
    {
      "inputs": [],
      "name": "NonceOverflow",
      "type": "error"
    },
    {
      "inputs": [],
      "name": "NotAuthorized",
      "type": "error"
    },
    {
      "inputs": [
        {
          "internalType": "address",
          "name": "provided",
          "type": "address"
        },
        {
          "internalType": "address",
          "name": "currentOwner",
          "type": "address"
        }
      ],
      "name": "NotOwner",
      "type": "error"
    },
    {
      "inputs": [],
      "name": "TransferRejected",
      "type": "error"
    },
    {
      "anonymous": false,
      "inputs": [
        {
          "indexed": true,
          "internalType": "address",
          "name": "owner",
          "type": "address"
        },
        {
          "indexed": true,
          "internalType": "address",
          "name": "approved",
          "type": "address"
        },
        {
          "indexed": true,
          "internalType": "uint256",
          "name": "tokenID",
          "type": "uint256"
        }
      ],
      "name": "Approval",
      "type": "event"
    },
    {
      "anonymous": false,
      "inputs": [
        {
          "indexed": true,
          "internalType": "address",
          "name": "owner",
          "type": "address"
        },
        {
          "indexed": true,
          "internalType": "address",
          "name": "operator",
          "type": "address"
        },
        {
          "indexed": false,
          "internalType": "bool",
          "name": "approved",
          "type": "bool"
        }
      ],
      "name": "ApprovalForAll",
      "type": "event"
    },
    {
      "anonymous": false,
      "inputs": [
        {
          "indexed": true,
          "internalType": "address",
          "name": "from",
          "type": "address"
        },
        {
          "indexed": true,
          "internalType": "address",
          "name": "to",
          "type": "address"
        },
        {
          "indexed": true,
          "internalType": "uint256",
          "name": "tokenID",
          "type": "uint256"
        }
      ],
      "name": "Transfer",
      "type": "event"
    },
    {
      "inputs": [],
      "name": "SIZE",
      "outputs": [
        {
          "internalType": "uint256",
          "name": "",
          "type": "uint256"
        }
      ],
      "stateMutability": "view",
      "type": "function"
    },
    {
      "inputs": [
        {
          "internalType": "address",
          "name": "operator",
          "type": "address"
        },
        {
          "internalType": "uint256",
          "name": "tokenID",
          "type": "uint256"
        }
      ],
      "name": "approve",
      "outputs": [],
      "stateMutability": "nonpayable",
      "type": "function"
    },
    {
      "inputs": [
        {
          "internalType": "address",
          "name": "owner",
          "type": "address"
        }
      ],
      "name": "balanceOf",
      "outputs": [
        {
          "internalType": "uint256",
          "name": "balance",
          "type": "uint256"
        }
      ],
      "stateMutability": "view",
      "type": "function"
    },
    {
      "inputs": [
        {
          "internalType": "bytes32",
          "name": "_bytes32",
          "type": "bytes32"
        }
      ],
      "name": "bytes32ToHexString",
      "outputs": [
        {
          "internalType": "string",
          "name": "",
          "type": "string"
        }
      ],
      "stateMutability": "pure",
      "type": "function"
    },
    {
      "inputs": [
        {
          "internalType": "uint256",
          "name": "tokenID",
          "type": "uint256"
        }
      ],
      "name": "getApproved",
      "outputs": [
        {
          "internalType": "address",
          "name": "operator",
          "type": "address"
        }
      ],
      "stateMutability": "view",
      "type": "function"
    },
    {
      "inputs": [],
      "name": "initialState",
      "outputs": [
        {
          "internalType": "uint8[16]",
          "name": "",
          "type": "uint8[16]"
        }
      ],
      "stateMutability": "view",
      "type": "function"
    },
    {
      "inputs": [
        {
          "internalType": "address",
          "name": "owner",
          "type": "address"
        },
        {
          "internalType": "address",
          "name": "operator",
          "type": "address"
        }
      ],
      "name": "isApprovedForAll",
      "outputs": [
        {
          "internalType": "bool",
          "name": "isOperator",
          "type": "bool"
        }
      ],
      "stateMutability": "view",
      "type": "function"
    },
    {
      "inputs": [],
      "name": "lowestNumberOfMoves",
      "outputs": [
        {
          "internalType": "uint256",
          "name": "",
          "type": "uint256"
        }
      ],
      "stateMutability": "view",
      "type": "function"
    },
    {
      "inputs": [],
      "name": "name",
      "outputs": [
        {
          "internalType": "string",
          "name": "",
          "type": "string"
        }
      ],
      "stateMutability": "pure",
      "type": "function"
    },
    {
      "inputs": [
        {
          "internalType": "uint256[]",
          "name": "tokenIDs",
          "type": "uint256[]"
        }
      ],
      "name": "ownerAndLastTransferBlockNumberList",
      "outputs": [
        {
          "components": [
            {
              "internalType": "address",
              "name": "owner",
              "type": "address"
            },
            {
              "internalType": "uint256",
              "name": "lastTransferBlockNumber",
              "type": "uint256"
            }
          ],
          "internalType": "struct IERC721WithBlocknumber.OwnerData[]",
          "name": "ownersData",
          "type": "tuple[]"
        }
      ],
      "stateMutability": "view",
      "type": "function"
    },
    {
      "inputs": [
        {
          "internalType": "uint256",
          "name": "tokenID",
          "type": "uint256"
        }
      ],
      "name": "ownerAndLastTransferBlockNumberOf",
      "outputs": [
        {
          "internalType": "address",
          "name": "owner",
          "type": "address"
        },
        {
          "internalType": "uint256",
          "name": "blockNumber",
          "type": "uint256"
        }
      ],
      "stateMutability": "view",
      "type": "function"
    },
    {
      "inputs": [
        {
          "internalType": "uint256",
          "name": "tokenID",
          "type": "uint256"
        }
      ],
      "name": "ownerOf",
      "outputs": [
        {
          "internalType": "address",
          "name": "owner",
          "type": "address"
        }
      ],
      "stateMutability": "view",
      "type": "function"
    },
    {
      "inputs": [
        {
          "internalType": "enum VitalikSecret.Move[]",
          "name": "moves",
          "type": "uint8[]"
        }
      ],
      "name": "proposeSolution",
      "outputs": [],
      "stateMutability": "nonpayable",
      "type": "function"
    },
    {
      "inputs": [
        {
          "internalType": "uint256",
          "name": "numMoves",
          "type": "uint256"
        },
        {
          "internalType": "bytes",
          "name": "proof",
          "type": "bytes"
        }
      ],
      "name": "proposeSolutionProof",
      "outputs": [],
      "stateMutability": "nonpayable",
      "type": "function"
    },
    {
      "inputs": [
        {
          "internalType": "address",
          "name": "from",
          "type": "address"
        },
        {
          "internalType": "address",
          "name": "to",
          "type": "address"
        },
        {
          "internalType": "uint256",
          "name": "tokenID",
          "type": "uint256"
        }
      ],
      "name": "safeTransferFrom",
      "outputs": [],
      "stateMutability": "nonpayable",
      "type": "function"
    },
    {
      "inputs": [
        {
          "internalType": "address",
          "name": "from",
          "type": "address"
        },
        {
          "internalType": "address",
          "name": "to",
          "type": "address"
        },
        {
          "internalType": "uint256",
          "name": "tokenID",
          "type": "uint256"
        },
        {
          "internalType": "bytes",
          "name": "data",
          "type": "bytes"
        }
      ],
      "name": "safeTransferFrom",
      "outputs": [],
      "stateMutability": "nonpayable",
      "type": "function"
    },
    {
      "inputs": [
        {
          "internalType": "address",
          "name": "operator",
          "type": "address"
        },
        {
          "internalType": "bool",
          "name": "approved",
          "type": "bool"
        }
      ],
      "name": "setApprovalForAll",
      "outputs": [],
      "stateMutability": "nonpayable",
      "type": "function"
    },
    {
      "inputs": [
        {
          "internalType": "bytes4",
          "name": "interfaceID",
          "type": "bytes4"
        }
      ],
      "name": "supportsInterface",
      "outputs": [
        {
          "internalType": "bool",
          "name": "",
          "type": "bool"
        }
      ],
      "stateMutability": "view",
      "type": "function"
    },
    {
      "inputs": [],
      "name": "symbol",
      "outputs": [
        {
          "internalType": "string",
          "name": "",
          "type": "string"
        }
      ],
      "stateMutability": "pure",
      "type": "function"
    },
    {
      "inputs": [
        {
          "internalType": "uint256",
          "name": "numMoves",
          "type": "uint256"
        }
      ],
      "name": "testMint",
      "outputs": [],
      "stateMutability": "nonpayable",
      "type": "function"
    },
    {
      "inputs": [
        {
          "internalType": "uint256",
          "name": "tokenID",
          "type": "uint256"
        }
      ],
      "name": "tokenURI",
      "outputs": [
        {
          "internalType": "string",
          "name": "",
          "type": "string"
        }
      ],
      "stateMutability": "pure",
      "type": "function"
    },
    {
      "inputs": [
        {
          "internalType": "address",
          "name": "from",
          "type": "address"
        },
        {
          "internalType": "address",
          "name": "to",
          "type": "address"
        },
        {
          "internalType": "uint256",
          "name": "tokenID",
          "type": "uint256"
        }
      ],
      "name": "transferFrom",
      "outputs": [],
      "stateMutability": "nonpayable",
      "type": "function"
    }
  ],
  "contractName": "VitalikSecret",
  "sourceName": "src/VitalikSecret.sol",
  "bytecode": "0x60a0604052600f60805234801561001557600080fd5b50608051612cf261003160003960006111650152612cf26000f3fe608060405234801561001057600080fd5b50600436106101825760003560e01c806395d89b41116100d8578063c370c3c71161008c578063e985e9c511610066578063e985e9c5146103cf578063f394528214610418578063fd82234c1461043857600080fd5b8063c370c3c714610396578063c68b3787146103a9578063c87b56dd146103bc57600080fd5b8063a22cb465116100bd578063a22cb46514610368578063b88d4fde1461037b578063bdffd2821461038e57600080fd5b806395d89b411461031c5780639e06c90b1461035557600080fd5b80632f3f94ae1161013a578063590fa6f811610114578063590fa6f8146102d35780636352211e146102e857806370a08231146102fb57600080fd5b80632f3f94ae1461025157806342842e0e1461026457806348f3c51c1461027757600080fd5b8063081812fc1161016b578063081812fc146101f1578063095ea7b31461022957806323b872dd1461023e57600080fd5b806301ffc9a71461018757806306fdde03146101af575b600080fd5b61019a610195366004612190565b610441565b60405190151581526020015b60405180910390f35b60408051808201909152600e81527f564954414c494b2053454352455400000000000000000000000000000000000060208201525b6040516101a69190612222565b6102046101ff366004612235565b610526565b60405173ffffffffffffffffffffffffffffffffffffffff90911681526020016101a6565b61023c610237366004612272565b6105ea565b005b61023c61024c36600461229c565b6106fb565b61023c61025f366004612235565b610979565b61023c61027236600461229c565b6109a1565b6102a7610285366004612235565b6000908152602081905260409020549067ffffffffffffffff60b883901c1690565b6040805173ffffffffffffffffffffffffffffffffffffffff90931683526020830191909152016101a6565b6102db6109c1565b6040516101a691906122d8565b6102046102f6366004612235565b610b2d565b61030e61030936600461230d565b610b91565b6040519081526020016101a6565b60408051808201909152600381527f565453000000000000000000000000000000000000000000000000000000000060208201526101e4565b61023c610363366004612328565b610c21565b61023c6103763660046123b2565b610e50565b61023c610389366004612418565b610e5f565b61030e600481565b61023c6103a436600461255e565b6110df565b6101e46103b7366004612235565b611418565b6101e46103ca366004612235565b6116a4565b61019a6103dd3660046125a0565b73ffffffffffffffffffffffffffffffffffffffff918216600090815260026020908152604080832093909416825291909152205460ff1690565b61042b61042636600461255e565b61170f565b6040516101a691906125d3565b61030e60055481565b60007f01ffc9a7000000000000000000000000000000000000000000000000000000007fffffffff00000000000000000000000000000000000000000000000000000000831614806104d457507f80ac58cd000000000000000000000000000000000000000000000000000000007fffffffff000000000000000000000000000000000000000000000000000000008316145b8061052057507f5b5e139f000000000000000000000000000000000000000000000000000000007fffffffff000000000000000000000000000000000000000000000000000000008316145b92915050565b6000818152602081905260408120547f80000000000000000000000000000000000000000000000000000000000000008082161473ffffffffffffffffffffffffffffffffffffffff82166105af576040517f38077a2b000000000000000000000000000000000000000000000000000000008152600481018590526024015b60405180910390fd5b80156105e05750505060009081526003602052604090205473ffffffffffffffffffffffffffffffffffffffff1690565b5060009392505050565b6000818152602081905260409020546affffffffffffffffffffff60a082901c1673ffffffffffffffffffffffffffffffffffffffff821661065b576040517f38077a2b000000000000000000000000000000000000000000000000000000008152600481018490526024016105a6565b3373ffffffffffffffffffffffffffffffffffffffff8316148015906106b2575073ffffffffffffffffffffffffffffffffffffffff8216600090815260026020908152604080832033845290915290205460ff16155b156106e9576040517fea8e4eb500000000000000000000000000000000000000000000000000000000815260040160405180910390fd5b6106f582828686611846565b50505050565b6000818152602081905260409020546affffffffffffffffffffff60a082901c167f80000000000000000000000000000000000000000000000000000000000000008083161473ffffffffffffffffffffffffffffffffffffffff8316610791576040517f38077a2b000000000000000000000000000000000000000000000000000000008152600481018590526024016105a6565b8273ffffffffffffffffffffffffffffffffffffffff168673ffffffffffffffffffffffffffffffffffffffff1614610816576040517f23295f0e00000000000000000000000000000000000000000000000000000000815273ffffffffffffffffffffffffffffffffffffffff8088166004830152841660248201526044016105a6565b73ffffffffffffffffffffffffffffffffffffffff8516158061084e575073ffffffffffffffffffffffffffffffffffffffff851630145b1561089d576040517f8e4c8aa600000000000000000000000000000000000000000000000000000000815273ffffffffffffffffffffffffffffffffffffffff861660048201526024016105a6565b3373ffffffffffffffffffffffffffffffffffffffff87161461095f578080156108ea575060008481526003602052604090205473ffffffffffffffffffffffffffffffffffffffff1633145b158015610928575073ffffffffffffffffffffffffffffffffffffffff8616600090815260026020908152604080832033845290915290205460ff16155b1561095f576040517fea8e4eb500000000000000000000000000000000000000000000000000000000815260040160405180910390fd5b610971868686601886901c15156119cf565b505050505050565b6005541580610989575060055481105b156109945760058190555b61099e3382611ab2565b50565b6109bc83838360405180602001604052806000815250610e5f565b505050565b6109c9612143565b6109d1612143565b60006109df60016010612667565b905060008282601081106109f5576109f561267a565b60ff909216602092909202015260005b81811015610a4957610a188160016126a9565b838260108110610a2a57610a2a61267a565b60ff909216602092909202015280610a41816126bc565b915050610a05565b50602a60005b82811015610b24576000610a638285612667565b6040805160208101869052016040516020818303038152906040528051906020012060001c610a929190612723565b610a9c90836126a9565b90506000858260108110610ab257610ab261267a565b60200201519050858360108110610acb57610acb61267a565b6020020151868360108110610ae257610ae261267a565b60ff909216602092909202015280868460108110610b0257610b0261267a565b60ff909216602092909202015250819050610b1c816126bc565b915050610a4f565b50919392505050565b60008181526020819052604090205473ffffffffffffffffffffffffffffffffffffffff8116610b8c576040517f38077a2b000000000000000000000000000000000000000000000000000000008152600481018390526024016105a6565b919050565b600073ffffffffffffffffffffffffffffffffffffffff8216610bf8576040517f8e4c8aa600000000000000000000000000000000000000000000000000000000815273ffffffffffffffffffffffffffffffffffffffff831660048201526024016105a6565b5073ffffffffffffffffffffffffffffffffffffffff1660009081526001602052604090205490565b6040805160028082526060820183526000926020830190803683370190505090508360001b81600081518110610c5957610c5961267a565b60209081029190910101528051339082906001908110610c7b57610c7b61267a565b602002602001018181525050610cb2610cad82600081518110610ca057610ca061267a565b6020026020010151611418565b611ad0565b610ccb610cad82600181518110610ca057610ca061267a565b600480546040517fea50d0e400000000000000000000000000000000000000000000000000000000815273ffffffffffffffffffffffffffffffffffffffff9091169163ea50d0e491610d249187918791879101612737565b602060405180830381865afa158015610d41573d6000803e3d6000fd5b505050506040513d601f19601f82011682018060405250810190610d6591906127ce565b610dcb576040517f08c379a000000000000000000000000000000000000000000000000000000000815260206004820152600d60248201527f494e56414c49445f50524f4f460000000000000000000000000000000000000060448201526064016105a6565b6005541580610ddb575060055484105b610e41576040517f08c379a000000000000000000000000000000000000000000000000000000000815260206004820152600e60248201527f544f4f5f4d414e595f4d4f56455300000000000000000000000000000000000060448201526064016105a6565b60058490556106f53385611ab2565b610e5b338383611b5f565b5050565b6000828152602081905260409020546affffffffffffffffffffff60a082901c167f80000000000000000000000000000000000000000000000000000000000000008083161473ffffffffffffffffffffffffffffffffffffffff8316610ef5576040517f38077a2b000000000000000000000000000000000000000000000000000000008152600481018690526024016105a6565b8673ffffffffffffffffffffffffffffffffffffffff168373ffffffffffffffffffffffffffffffffffffffff1614610f7a576040517f23295f0e00000000000000000000000000000000000000000000000000000000815273ffffffffffffffffffffffffffffffffffffffff8089166004830152841660248201526044016105a6565b73ffffffffffffffffffffffffffffffffffffffff86161580610fb2575073ffffffffffffffffffffffffffffffffffffffff861630145b15611001576040517f8e4c8aa600000000000000000000000000000000000000000000000000000000815273ffffffffffffffffffffffffffffffffffffffff871660048201526024016105a6565b3373ffffffffffffffffffffffffffffffffffffffff8816146110c35780801561104e575060008581526003602052604090205473ffffffffffffffffffffffffffffffffffffffff1633145b15801561108c575073ffffffffffffffffffffffffffffffffffffffff8716600090815260026020908152604080832033845290915290205460ff16155b156110c3576040517fea8e4eb500000000000000000000000000000000000000000000000000000000815260040160405180910390fd5b6110d6878787601886901c151588611bf7565b50505050505050565b604080516102008101825260028152600160208201526003918101919091526004606082015260056080820152600660a0820152600760c0820152600860e08201526009610100820152600a610120820152600b610140820152600c610160820152600d610180820152600f6101a0820152600e6101c082015260006101e082018190527f0000000000000000000000000000000000000000000000000000000000000000905b83811015611251576000826111c285828989878181106111a8576111a861267a565b90506020020160208101906111bd91906127eb565b611c6a565b94509150816111d082611dc1565b6111d986611dc1565b6111e286611dc1565b6040516020016111f493929190612828565b6040516020818303038152906040529061123b576040517f08c379a00000000000000000000000000000000000000000000000000000000081526004016105a69190612222565b5050508080611249906126bc565b915050611186565b508161125f60016010612667565b6010811061126f5761126f61267a565b602002015160ff16156112de576040517f08c379a000000000000000000000000000000000000000000000000000000000815260206004820152601960248201527f696e76616c696420736f6c7574696f6e2028636172726574290000000000000060448201526064016105a6565b60005b6112ed60016010612667565b811015611392576112ff8160016126a9565b8382601081106113115761131161267a565b602002015160ff1614611380576040517f08c379a000000000000000000000000000000000000000000000000000000000815260206004820152601060248201527f696e76616c696420736f6c7574696f6e0000000000000000000000000000000060448201526064016105a6565b8061138a816126bc565b9150506112e1565b5060055415806113a3575060055483105b611409576040517f08c379a000000000000000000000000000000000000000000000000000000000815260206004820152600e60248201527f544f4f5f4d414e595f4d4f56455300000000000000000000000000000000000060448201526064016105a6565b60058390556106f53384611ab2565b6040805160208082528183019092526060916000919060208201818036833701905050905060005b60208110156114b25783816020811061145b5761145b61267a565b1a60f81b8282815181106114715761147161267a565b60200101907effffffffffffffffffffffffffffffffffffffffffffffffffffffffffffff1916908160001a905350806114aa816126bc565b915050611440565b50604080518082018252601081527f30313233343536373839616263646566000000000000000000000000000000006020820152815182815260608101835290916000919060208201818036833701905050905060005b602081101561169b578260048583815181106115275761152761267a565b016020015182517fff0000000000000000000000000000000000000000000000000000000000000090911690911c60f81c9081106115675761156761267a565b01602001517fff00000000000000000000000000000000000000000000000000000000000000168261159a8360026128e8565b815181106115aa576115aa61267a565b60200101907effffffffffffffffffffffffffffffffffffffffffffffffffffffffffffff1916908160001a905350828482815181106115ec576115ec61267a565b602091010151815160f89190911c600f1690811061160c5761160c61267a565b01602001517fff00000000000000000000000000000000000000000000000000000000000000168261163f8360026128e8565b61164a9060016126a9565b8151811061165a5761165a61267a565b60200101907effffffffffffffffffffffffffffffffffffffffffffffffffffffffffffff1916908160001a90535080611693816126bc565b915050611509565b50949350505050565b60408051808201909152601281527f566974616c696b27732532307365637265740000000000000000000000000000602082015260609080806116e685611dc1565b6040516020016116f8939291906128ff565b604051602081830303815290604052915050919050565b60608167ffffffffffffffff81111561172a5761172a6123e9565b60405190808252806020026020018201604052801561176f57816020015b60408051808201909152600080825260208201528152602001906001900390816117485790505b50905060005b8281101561183f5760008060008686858181106117945761179461267a565b905060200201358152602001908152602001600020549050808383815181106117bf576117bf61267a565b60200260200101516000019073ffffffffffffffffffffffffffffffffffffffff16908173ffffffffffffffffffffffffffffffffffffffff168152505060b881901c67ffffffffffffffff1683838151811061181e5761181e61267a565b60209081029190910181015101525080611837816126bc565b915050611775565b5092915050565b601883901c60006118588560016126a9565b905081601882901c14611897576040517fadc1557200000000000000000000000000000000000000000000000000000000815260040160405180910390fd5b73ffffffffffffffffffffffffffffffffffffffff84166118e457600083815260208190526040902060a082901b73ffffffffffffffffffffffffffffffffffffffff881617905561196c565b60008381526020818152604080832073ffffffffffffffffffffffffffffffffffffffff8a811660a087901b177f800000000000000000000000000000000000000000000000000000000000000017909155600390925290912080547fffffffffffffffffffffffff0000000000000000000000000000000000000000169186169190911790555b828473ffffffffffffffffffffffffffffffffffffffff168773ffffffffffffffffffffffffffffffffffffffff167f8c5be1e5ebec7d5bd14f71427d1e84f3dd0314c0f7b2291e5b200ac8c7c3b92560405160405180910390a4505050505050565b73ffffffffffffffffffffffffffffffffffffffff83166000908152600160208190526040909120805490910190558015611a505773ffffffffffffffffffffffffffffffffffffffff8416600090815260016020526040902080547fffffffffffffffffffffffffffffffffffffffffffffffffffffffffffffffff0190555b6000828152602081905260408082204360b81b73ffffffffffffffffffffffffffffffffffffffff80881691821790925591518593918816917fddf252ad1be2c89b69c2b068fc378daa952ba7f163c4a11628f55a4df523b3ef91a450505050565b610e5b60008383600060405180602001604052806000815250611bf7565b61099e81604051602401611ae49190612222565b604080517fffffffffffffffffffffffffffffffffffffffffffffffffffffffffffffffe08184030181529190526020810180517bffffffffffffffffffffffffffffffffffffffffffffffffffffffff167f41304fac00000000000000000000000000000000000000000000000000000000179052611e7f565b73ffffffffffffffffffffffffffffffffffffffff83811660008181526002602090815260408083209487168084529482529182902080547fffffffffffffffffffffffffffffffffffffffffffffffffffffffffffffff001686151590811790915591519182527f17307eab39ab6107e8899845ad3d59bd9653f200f220920489ca2b5937696c31910160405180910390a3505050565b611c03858585856119cf565b73ffffffffffffffffffffffffffffffffffffffff84163b15611c6357611c2d3386868685611e88565b611c63576040517f4e472e5e00000000000000000000000000000000000000000000000000000000815260040160405180910390fd5b5050505050565b60008080611c79600486612723565b90506000611c88600487612b5a565b90506000856003811115611c9e57611c9e612b6e565b03611ced57611caf60016004612667565b821015611ce8576001935081611cc66004836128e8565b611cd091906126a9565b611cdb9060016126a9565b9250611ce8878785611f5d565b611db7565b6001856003811115611d0157611d01612b6e565b03611d3e57611d1260016004612667565b811015611ce85760019350816004611d2a83876126a9565b611d3491906128e8565b611cdb91906126a9565b6002856003811115611d5257611d52612b6e565b03611d82578115611ce857600193508382611d6e6004846128e8565b611d7891906126a9565b611cdb9190612667565b6003856003811115611d9657611d96612b6e565b03611db2578015611ce85760019350816004611d2a8684612667565b600093505b5050935093915050565b60606000611dce83612040565b600101905060008167ffffffffffffffff811115611dee57611dee6123e9565b6040519080825280601f01601f191660200182016040528015611e18576020820181803683370190505b5090508181016020015b7fffffffffffffffffffffffffffffffffffffffffffffffffffffffffffffffff017f3031323334353637383961626364656600000000000000000000000000000000600a86061a8153600a8504945084611e2257509392505050565b61099e81612122565b6000808473ffffffffffffffffffffffffffffffffffffffff1663150b7a02888887876040518563ffffffff1660e01b8152600401611eca9493929190612b9d565b6020604051808303816000875af1158015611ee9573d6000803e3d6000fd5b505050506040513d601f19601f82011682018060405250810190611f0d9190612be6565b7fffffffff00000000000000000000000000000000000000000000000000000000167f150b7a02000000000000000000000000000000000000000000000000000000001491505095945050505050565b6000838360108110611f7157611f7161267a565b602002015190506000848360108110611f8c57611f8c61267a565b60200201519050611fd0611f9f85611dc1565b611fab8460ff16611dc1565b604051602001611fbc929190612c03565b604051602081830303815290604052611ad0565b611ff9611fdc84611dc1565b611fe88360ff16611dc1565b604051602001611fbc929190612c84565b8085856010811061200c5761200c61267a565b60ff90921660209290920201528185846010811061202c5761202c61267a565b60ff90921660209290920201525050505050565b6000807a184f03e93ff9f4daa797ed6e38ed64bf6a1f0100000000000000008310612089577a184f03e93ff9f4daa797ed6e38ed64bf6a1f010000000000000000830492506040015b6d04ee2d6d415b85acef810000000083106120b5576d04ee2d6d415b85acef8100000000830492506020015b662386f26fc1000083106120d357662386f26fc10000830492506010015b6305f5e10083106120eb576305f5e100830492506008015b61271083106120ff57612710830492506004015b60648310612111576064830492506002015b600a83106105205760010192915050565b60006a636f6e736f6c652e6c6f679050600080835160208501845afa505050565b6040518061020001604052806010906020820280368337509192915050565b7fffffffff000000000000000000000000000000000000000000000000000000008116811461099e57600080fd5b6000602082840312156121a257600080fd5b81356121ad81612162565b9392505050565b60005b838110156121cf5781810151838201526020016121b7565b50506000910152565b600081518084526121f08160208601602086016121b4565b601f017fffffffffffffffffffffffffffffffffffffffffffffffffffffffffffffffe0169290920160200192915050565b6020815260006121ad60208301846121d8565b60006020828403121561224757600080fd5b5035919050565b803573ffffffffffffffffffffffffffffffffffffffff81168114610b8c57600080fd5b6000806040838503121561228557600080fd5b61228e8361224e565b946020939093013593505050565b6000806000606084860312156122b157600080fd5b6122ba8461224e565b92506122c86020850161224e565b9150604084013590509250925092565b6102008101818360005b601081101561230457815160ff168352602092830192909101906001016122e2565b50505092915050565b60006020828403121561231f57600080fd5b6121ad8261224e565b60008060006040848603121561233d57600080fd5b83359250602084013567ffffffffffffffff8082111561235c57600080fd5b818601915086601f83011261237057600080fd5b81358181111561237f57600080fd5b87602082850101111561239157600080fd5b6020830194508093505050509250925092565b801515811461099e57600080fd5b600080604083850312156123c557600080fd5b6123ce8361224e565b915060208301356123de816123a4565b809150509250929050565b7f4e487b7100000000000000000000000000000000000000000000000000000000600052604160045260246000fd5b6000806000806080858703121561242e57600080fd5b6124378561224e565b93506124456020860161224e565b925060408501359150606085013567ffffffffffffffff8082111561246957600080fd5b818701915087601f83011261247d57600080fd5b81358181111561248f5761248f6123e9565b604051601f82017fffffffffffffffffffffffffffffffffffffffffffffffffffffffffffffffe0908116603f011681019083821181831017156124d5576124d56123e9565b816040528281528a60208487010111156124ee57600080fd5b82602086016020830137600060208483010152809550505050505092959194509250565b60008083601f84011261252457600080fd5b50813567ffffffffffffffff81111561253c57600080fd5b6020830191508360208260051b850101111561255757600080fd5b9250929050565b6000806020838503121561257157600080fd5b823567ffffffffffffffff81111561258857600080fd5b61259485828601612512565b90969095509350505050565b600080604083850312156125b357600080fd5b6125bc8361224e565b91506125ca6020840161224e565b90509250929050565b602080825282518282018190526000919060409081850190868401855b8281101561262b578151805173ffffffffffffffffffffffffffffffffffffffff1685528601518685015292840192908501906001016125f0565b5091979650505050505050565b7f4e487b7100000000000000000000000000000000000000000000000000000000600052601160045260246000fd5b8181038181111561052057610520612638565b7f4e487b7100000000000000000000000000000000000000000000000000000000600052603260045260246000fd5b8082018082111561052057610520612638565b60007fffffffffffffffffffffffffffffffffffffffffffffffffffffffffffffffff82036126ed576126ed612638565b5060010190565b7f4e487b7100000000000000000000000000000000000000000000000000000000600052601260045260246000fd5b600082612732576127326126f4565b500690565b604081528260408201528284606083013760006060848301015260007fffffffffffffffffffffffffffffffffffffffffffffffffffffffffffffffe0601f8501168201606081016020606085840301818601528186518084526080850191508288019450600093505b808410156127c157845182529382019360019390930192908201906127a1565b5098975050505050505050565b6000602082840312156127e057600080fd5b81516121ad816123a4565b6000602082840312156127fd57600080fd5b8135600481106121ad57600080fd5b6000815161281e8185602086016121b4565b9290920192915050565b7f696e76616c6964200000000000000000000000000000000000000000000000008152600084516128608160088501602089016121b4565b7f203d3e2000000000000000000000000000000000000000000000000000000000600891840191820152845161289d81600c8401602089016121b4565b7f203a200000000000000000000000000000000000000000000000000000000000600c929091019182015283516128db81600f8401602088016121b4565b01600f0195945050505050565b808202811582820484141761052057610520612638565b7f646174613a6170706c69636174696f6e2f6a736f6e2c7b226e616d65223a220081526000845161293781601f8501602089016121b4565b7f222c226465736372697074696f6e223a22000000000000000000000000000000601f9184019182015284516129748160308401602089016121b4565b7f222c22696d616765223a22000000000000000000000000000000000000000000603092909101918201527f646174613a696d6167652f7376672b786d6c2c3c737667253235323076696577603b8201527f426f783d27302532353230302532353230333225323532303136272532353230605b8201527f786d6c6e733d27687474703a2f2f7777772e77332e6f72672f323030302f7376607b8201527f67273e3c746578742532353230783d27353025272532353230793d2735302527609b8201527f2532353230646f6d696e616e742d626173656c696e653d276d6964646c65272560bb8201527f32353230746578742d616e63686f723d276d6964646c6527253235323073747960db8201527f6c653d2766696c6c3a726762283231392c33392c313139293b666f6e742d736960fb8201527f7a653a3270783b273e000000000000000000000000000000000000000000000061011b820152612ade61012482018561280c565b7f253230000000000000000000000000000000000000000000000000000000000081527f6d6f76657300000000000000000000000000000000000000000000000000000060038201527f3c2f746578743e3c2f7376673e227d000000000000000000000000000000000060088201526017019695505050505050565b600082612b6957612b696126f4565b500490565b7f4e487b7100000000000000000000000000000000000000000000000000000000600052602160045260246000fd5b600073ffffffffffffffffffffffffffffffffffffffff808716835280861660208401525083604083015260806060830152612bdc60808301846121d8565b9695505050505050565b600060208284031215612bf857600080fd5b81516121ad81612162565b7f613a200000000000000000000000000000000000000000000000000000000000815260008351612c3b8160038501602088016121b4565b7f203d2000000000000000000000000000000000000000000000000000000000006003918401918201528351612c788160068401602088016121b4565b01600601949350505050565b7f623a200000000000000000000000000000000000000000000000000000000000815260008351612c3b8160038501602088016121b456fea26469706673582212208da184eb64f917ef2a0f9f9e474828624bf44ce649e079d25a1aceb20e1e470264736f6c63430008140033",
  "linkReferences": {},
  "deployedLinkReferences": {},
  "devdoc": {
    "errors": {
      "InvalidAddress(address)": [
        {
          "params": {
            "addr": "invalid address"
          }
        }
      ],
      "NonExistentToken(uint256)": [
        {
          "params": {
            "tokenID": "id of the expected token"
          }
        }
      ],
      "NotOwner(address,address)": [
        {
          "params": {
            "currentOwner": "the current owner",
            "provided": "the address expected to be the current owner"
          }
        }
      ]
    },
    "events": {
      "Approval(address,address,uint256)": {
        "params": {
          "approved": "account who can know transfer on the owner's behalf",
          "owner": "current owner of the token",
          "tokenID": "id of the token being approved"
        }
      },
      "ApprovalForAll(address,address,bool)": {
        "params": {
          "approved": "whether it is approved or not",
          "operator": "account who can know transfer on the owner's behalf",
          "owner": "the account granting rights over all of its token"
        }
      },
      "Transfer(address,address,uint256)": {
        "params": {
          "from": "the account the token is sent from",
          "to": "the account the token is sent to",
          "tokenID": "id of the token being sent"
        }
      }
    },
    "kind": "dev",
    "methods": {
      "approve(address,uint256)": {
        "params": {
          "operator": "The address receiving the approval.",
          "tokenID": "The id of the token."
        }
      },
      "balanceOf(address)": {
        "params": {
          "owner": "The address to look for."
        },
        "returns": {
          "balance": "The number of tokens owned by the address."
        }
      },
      "getApproved(uint256)": {
        "params": {
          "tokenID": "The id of the token."
        },
        "returns": {
          "operator": "The address of the operator."
        }
      },
      "isApprovedForAll(address,address)": {
        "params": {
          "operator": "The address of the operator.",
          "owner": "The address of the owner."
        },
        "returns": {
          "isOperator": "The status of the approval."
        }
      },
      "ownerAndLastTransferBlockNumberList(uint256[])": {
        "params": {
          "tokenIDs": "The list of token ids to check."
        },
        "returns": {
          "ownersData": "The list of (owner, lastTransferBlockNumber) for each ids given as input."
        }
      },
      "ownerAndLastTransferBlockNumberOf(uint256)": {
        "params": {
          "tokenID": "The id of the token."
        },
        "returns": {
          "blockNumber": "The blocknumber at which the last transfer of that id happened.",
          "owner": "The address of the token owner."
        }
      },
      "ownerOf(uint256)": {
        "params": {
          "tokenID": "The id of the token."
        },
        "returns": {
          "owner": "The address of the token owner."
        }
      },
      "safeTransferFrom(address,address,uint256)": {
        "params": {
          "from": "The send of the token.",
          "to": "The recipient of the token.",
          "tokenID": "The id of the token."
        }
      },
      "safeTransferFrom(address,address,uint256,bytes)": {
        "params": {
          "data": "Additional data.",
          "from": "The sender of the token.",
          "to": "The recipient of the token.",
          "tokenID": "The id of the token."
        }
      },
      "setApprovalForAll(address,bool)": {
        "params": {
          "approved": "The determination of the approval.",
          "operator": "The address receiving the approval."
        }
      },
      "supportsInterface(bytes4)": {
        "details": "Interface identification is specified in ERC-165. This function  uses less than 30,000 gas.",
        "params": {
          "interfaceID": "The interface identifier, as specified in ERC-165"
        },
        "returns": {
          "_0": "`true` if the contract implements `interfaceID` and  `interfaceID` is not 0xffffffff, `false` otherwise"
        }
      },
      "tokenURI(uint256)": {
        "details": "Throws if `tokenID` is not a valid NFT. URIs are defined in RFC  3986. The URI may point to a JSON file that conforms to the \"ERC721  Metadata JSON Schema\".",
        "params": {
          "tokenID": "id of the token being queried."
        }
      },
      "transferFrom(address,address,uint256)": {
        "params": {
          "from": "The sender of the token.",
          "to": "The recipient of the token.",
          "tokenID": "The id of the token."
        }
      }
    },
    "version": 1
  },
  "evm": {
    "gasEstimates": {
      "creation": {
        "codeDepositCost": "2301200",
        "executionCost": "infinite",
        "totalCost": "infinite"
      },
      "external": {
        "SIZE()": "284",
        "approve(address,uint256)": "53543",
        "balanceOf(address)": "2642",
        "bytes32ToHexString(bytes32)": "infinite",
        "getApproved(uint256)": "4746",
        "initialState()": "infinite",
        "isApprovedForAll(address,address)": "infinite",
        "lowestNumberOfMoves()": "2383",
        "name()": "infinite",
        "ownerAndLastTransferBlockNumberList(uint256[])": "infinite",
        "ownerAndLastTransferBlockNumberOf(uint256)": "2585",
        "ownerOf(uint256)": "2557",
        "proposeSolution(uint8[])": "infinite",
        "proposeSolutionProof(uint256,bytes)": "infinite",
        "safeTransferFrom(address,address,uint256)": "infinite",
        "safeTransferFrom(address,address,uint256,bytes)": "infinite",
        "setApprovalForAll(address,bool)": "26671",
        "supportsInterface(bytes4)": "479",
        "symbol()": "infinite",
        "testMint(uint256)": "infinite",
        "tokenURI(uint256)": "infinite",
        "transferFrom(address,address,uint256)": "infinite"
      },
      "internal": {
        "_swap(uint8[16] memory,uint256,uint256)": "infinite",
        "randomSeed()": "infinite",
        "step(uint8[16] memory,uint256,enum VitalikSecret.Move)": "infinite"
      }
    }
  },
  "storageLayout": {
    "storage": [
      {
        "astId": 9535,
        "contract": "src/VitalikSecret.sol:VitalikSecret",
        "label": "_owners",
        "offset": 0,
        "slot": "0",
        "type": "t_mapping(t_uint256,t_uint256)"
      },
      {
        "astId": 9539,
        "contract": "src/VitalikSecret.sol:VitalikSecret",
        "label": "_balances",
        "offset": 0,
        "slot": "1",
        "type": "t_mapping(t_address,t_uint256)"
      },
      {
        "astId": 9545,
        "contract": "src/VitalikSecret.sol:VitalikSecret",
        "label": "_operatorsForAll",
        "offset": 0,
        "slot": "2",
        "type": "t_mapping(t_address,t_mapping(t_address,t_bool))"
      },
      {
        "astId": 9549,
        "contract": "src/VitalikSecret.sol:VitalikSecret",
        "label": "_operators",
        "offset": 0,
        "slot": "3",
        "type": "t_mapping(t_uint256,t_address)"
      },
      {
        "astId": 11107,
        "contract": "src/VitalikSecret.sol:VitalikSecret",
        "label": "zecret",
        "offset": 0,
        "slot": "4",
        "type": "t_contract(UltraVerifier)12731"
      },
      {
        "astId": 11120,
        "contract": "src/VitalikSecret.sol:VitalikSecret",
        "label": "lowestNumberOfMoves",
        "offset": 0,
        "slot": "5",
        "type": "t_uint256"
      }
    ],
    "types": {
      "t_address": {
        "encoding": "inplace",
        "label": "address",
        "numberOfBytes": "20"
      },
      "t_bool": {
        "encoding": "inplace",
        "label": "bool",
        "numberOfBytes": "1"
      },
      "t_contract(UltraVerifier)12731": {
        "encoding": "inplace",
        "label": "contract UltraVerifier",
        "numberOfBytes": "20"
      },
      "t_mapping(t_address,t_bool)": {
        "encoding": "mapping",
        "key": "t_address",
        "label": "mapping(address => bool)",
        "numberOfBytes": "32",
        "value": "t_bool"
      },
      "t_mapping(t_address,t_mapping(t_address,t_bool))": {
        "encoding": "mapping",
        "key": "t_address",
        "label": "mapping(address => mapping(address => bool))",
        "numberOfBytes": "32",
        "value": "t_mapping(t_address,t_bool)"
      },
      "t_mapping(t_address,t_uint256)": {
        "encoding": "mapping",
        "key": "t_address",
        "label": "mapping(address => uint256)",
        "numberOfBytes": "32",
        "value": "t_uint256"
      },
      "t_mapping(t_uint256,t_address)": {
        "encoding": "mapping",
        "key": "t_uint256",
        "label": "mapping(uint256 => address)",
        "numberOfBytes": "32",
        "value": "t_address"
      },
      "t_mapping(t_uint256,t_uint256)": {
        "encoding": "mapping",
        "key": "t_uint256",
        "label": "mapping(uint256 => uint256)",
        "numberOfBytes": "32",
        "value": "t_uint256"
      },
      "t_uint256": {
        "encoding": "inplace",
        "label": "uint256",
        "numberOfBytes": "32"
      }
    }
  },
  "userdoc": {
    "errors": {
      "InvalidAddress(address)": [
        {
          "notice": "An invalid address is specified (for example: zero address)"
        }
      ],
      "NonExistentToken(uint256)": [
        {
          "notice": "The token does not exist"
        }
      ],
      "NonceOverflow()": [
        {
          "notice": "The Nonce overflowed, make a transfer to self to allow new nonces."
        }
      ],
      "NotAuthorized()": [
        {
          "notice": "Not authorized to perform this operation"
        }
      ],
      "NotOwner(address,address)": [
        {
          "notice": "The address from which the token is sent is not the current owner"
        }
      ],
      "TransferRejected()": [
        {
          "notice": "The Transfer was rejected by the destination"
        }
      ]
    },
    "events": {
      "Approval(address,address,uint256)": {
        "notice": "Triggered when a token is approved to be sent by another account  Note tat the approval get reset when a Transfer event for that same token is emitted."
      },
      "ApprovalForAll(address,address,bool)": {
        "notice": "Triggered when an account approve or disaprove another to transfer on its behalf"
      },
      "Transfer(address,address,uint256)": {
        "notice": "Triggered when a token is transferred"
      }
    },
    "kind": "user",
    "methods": {
      "approve(address,uint256)": {
        "notice": "Approve an operator to transfer a specific token on the senders behalf."
      },
      "balanceOf(address)": {
        "notice": "Get the number of tokens owned by an address."
      },
      "getApproved(uint256)": {
        "notice": "Get the approved operator for a specific token."
      },
      "isApprovedForAll(address,address)": {
        "notice": "Check if the sender approved the operator to transfer any of its tokens."
      },
      "name()": {
        "notice": "A descriptive name for a collection of NFTs in this contract"
      },
      "ownerAndLastTransferBlockNumberList(uint256[])": {
        "notice": "Get the list of owner of a token and the blockNumber of its last transfer, useful to voting mechanism."
      },
      "ownerAndLastTransferBlockNumberOf(uint256)": {
        "notice": "Get the owner of a token and the blockNumber of the last transfer, useful to voting mechanism."
      },
      "ownerOf(uint256)": {
        "notice": "Get the owner of a token."
      },
      "safeTransferFrom(address,address,uint256)": {
        "notice": "Transfer a token between 2 addresses letting the receiver know of the transfer."
      },
      "safeTransferFrom(address,address,uint256,bytes)": {
        "notice": "Transfer a token between 2 addresses letting the receiver knows of the transfer."
      },
      "setApprovalForAll(address,bool)": {
        "notice": "Set the approval for an operator to manage all the tokens of the sender."
      },
      "supportsInterface(bytes4)": {
        "notice": "Query if a contract implements an interface"
      },
      "symbol()": {
        "notice": "An abbreviated name for NFTs in this contract"
      },
      "tokenURI(uint256)": {
        "notice": "A distinct Uniform Resource Identifier (URI) for a given asset."
      },
      "transferFrom(address,address,uint256)": {
        "notice": "Transfer a token between 2 addresses."
      }
    },
    "notice": "a puzzle",
    "version": 1
  },
  "argsData": "0x",
  "transaction": {
    "hash": "0xe752b68b560f7b87cc3d3849ca9c5224f6045de1649f1848d7d00623a8e63496",
    "nonce": "0x0",
    "origin": "0x61c461ecc993aadeb7e4b47e96d1b8cc37314b20"
  }
}