{
  "address": "0xad994dedaab665ce5aad2a333253e30708087149",
  "abi": [
    {
      "inputs": [
        {
          "internalType": "address",
          "name": "addr",
          "type": "address"
        }
      ],
      "name": "InvalidAddress",
      "type": "error"
    },
    {
      "inputs": [
        {
          "internalType": "uint256",
          "name": "tokenID",
          "type": "uint256"
        }
      ],
      "name": "NonExistentToken",
      "type": "error"
    },
    {
      "inputs": [],
      "name": "NonceOverflow",
      "type": "error"
    },
    {
      "inputs": [],
      "name": "NotAuthorized",
      "type": "error"
    },
    {
      "inputs": [
        {
          "internalType": "address",
          "name": "provided",
          "type": "address"
        },
        {
          "internalType": "address",
          "name": "currentOwner",
          "type": "address"
        }
      ],
      "name": "NotOwner",
      "type": "error"
    },
    {
      "inputs": [],
      "name": "TransferRejected",
      "type": "error"
    },
    {
      "anonymous": false,
      "inputs": [
        {
          "indexed": true,
          "internalType": "address",
          "name": "owner",
          "type": "address"
        },
        {
          "indexed": true,
          "internalType": "address",
          "name": "approved",
          "type": "address"
        },
        {
          "indexed": true,
          "internalType": "uint256",
          "name": "tokenID",
          "type": "uint256"
        }
      ],
      "name": "Approval",
      "type": "event"
    },
    {
      "anonymous": false,
      "inputs": [
        {
          "indexed": true,
          "internalType": "address",
          "name": "owner",
          "type": "address"
        },
        {
          "indexed": true,
          "internalType": "address",
          "name": "operator",
          "type": "address"
        },
        {
          "indexed": false,
          "internalType": "bool",
          "name": "approved",
          "type": "bool"
        }
      ],
      "name": "ApprovalForAll",
      "type": "event"
    },
    {
      "anonymous": false,
      "inputs": [
        {
          "indexed": true,
          "internalType": "address",
          "name": "from",
          "type": "address"
        },
        {
          "indexed": true,
          "internalType": "address",
          "name": "to",
          "type": "address"
        },
        {
          "indexed": true,
          "internalType": "uint256",
          "name": "tokenID",
          "type": "uint256"
        }
      ],
      "name": "Transfer",
      "type": "event"
    },
    {
      "inputs": [],
      "name": "RANDOM",
      "outputs": [
        {
          "internalType": "bytes",
          "name": "",
          "type": "bytes"
        }
      ],
      "stateMutability": "view",
      "type": "function"
    },
    {
      "inputs": [],
      "name": "SIZE",
      "outputs": [
        {
          "internalType": "uint256",
          "name": "",
          "type": "uint256"
        }
      ],
      "stateMutability": "view",
      "type": "function"
    },
    {
      "inputs": [],
      "name": "SOLUTION",
      "outputs": [
        {
          "internalType": "bytes",
          "name": "",
          "type": "bytes"
        }
      ],
      "stateMutability": "view",
      "type": "function"
    },
    {
      "inputs": [
        {
          "internalType": "address",
          "name": "operator",
          "type": "address"
        },
        {
          "internalType": "uint256",
          "name": "tokenID",
          "type": "uint256"
        }
      ],
      "name": "approve",
      "outputs": [],
      "stateMutability": "nonpayable",
      "type": "function"
    },
    {
      "inputs": [
        {
          "internalType": "address",
          "name": "owner",
          "type": "address"
        }
      ],
      "name": "balanceOf",
      "outputs": [
        {
          "internalType": "uint256",
          "name": "balance",
          "type": "uint256"
        }
      ],
      "stateMutability": "view",
      "type": "function"
    },
    {
      "inputs": [
        {
          "internalType": "uint256",
          "name": "tokenID",
          "type": "uint256"
        }
      ],
      "name": "getApproved",
      "outputs": [
        {
          "internalType": "address",
          "name": "operator",
          "type": "address"
        }
      ],
      "stateMutability": "view",
      "type": "function"
    },
    {
      "inputs": [
        {
          "internalType": "address",
          "name": "owner",
          "type": "address"
        },
        {
          "internalType": "address",
          "name": "operator",
          "type": "address"
        }
      ],
      "name": "isApprovedForAll",
      "outputs": [
        {
          "internalType": "bool",
          "name": "isOperator",
          "type": "bool"
        }
      ],
      "stateMutability": "view",
      "type": "function"
    },
    {
      "inputs": [],
      "name": "name",
      "outputs": [
        {
          "internalType": "string",
          "name": "",
          "type": "string"
        }
      ],
      "stateMutability": "pure",
      "type": "function"
    },
    {
      "inputs": [
        {
          "internalType": "uint256[]",
          "name": "tokenIDs",
          "type": "uint256[]"
        }
      ],
      "name": "ownerAndLastTransferBlockNumberList",
      "outputs": [
        {
          "components": [
            {
              "internalType": "address",
              "name": "owner",
              "type": "address"
            },
            {
              "internalType": "uint256",
              "name": "lastTransferBlockNumber",
              "type": "uint256"
            }
          ],
          "internalType": "struct IERC721WithBlocknumber.OwnerData[]",
          "name": "ownersData",
          "type": "tuple[]"
        }
      ],
      "stateMutability": "view",
      "type": "function"
    },
    {
      "inputs": [
        {
          "internalType": "uint256",
          "name": "tokenID",
          "type": "uint256"
        }
      ],
      "name": "ownerAndLastTransferBlockNumberOf",
      "outputs": [
        {
          "internalType": "address",
          "name": "owner",
          "type": "address"
        },
        {
          "internalType": "uint256",
          "name": "blockNumber",
          "type": "uint256"
        }
      ],
      "stateMutability": "view",
      "type": "function"
    },
    {
      "inputs": [
        {
          "internalType": "uint256",
          "name": "tokenID",
          "type": "uint256"
        }
      ],
      "name": "ownerOf",
      "outputs": [
        {
          "internalType": "address",
          "name": "owner",
          "type": "address"
        }
      ],
      "stateMutability": "view",
      "type": "function"
    },
    {
      "inputs": [
        {
          "internalType": "enum VitalikSecret.Move[]",
          "name": "moves",
          "type": "uint8[]"
        }
      ],
      "name": "proposeSolution",
      "outputs": [],
      "stateMutability": "nonpayable",
      "type": "function"
    },
    {
      "inputs": [
        {
          "internalType": "address",
          "name": "from",
          "type": "address"
        },
        {
          "internalType": "address",
          "name": "to",
          "type": "address"
        },
        {
          "internalType": "uint256",
          "name": "tokenID",
          "type": "uint256"
        }
      ],
      "name": "safeTransferFrom",
      "outputs": [],
      "stateMutability": "nonpayable",
      "type": "function"
    },
    {
      "inputs": [
        {
          "internalType": "address",
          "name": "from",
          "type": "address"
        },
        {
          "internalType": "address",
          "name": "to",
          "type": "address"
        },
        {
          "internalType": "uint256",
          "name": "tokenID",
          "type": "uint256"
        },
        {
          "internalType": "bytes",
          "name": "data",
          "type": "bytes"
        }
      ],
      "name": "safeTransferFrom",
      "outputs": [],
      "stateMutability": "nonpayable",
      "type": "function"
    },
    {
      "inputs": [
        {
          "internalType": "address",
          "name": "operator",
          "type": "address"
        },
        {
          "internalType": "bool",
          "name": "approved",
          "type": "bool"
        }
      ],
      "name": "setApprovalForAll",
      "outputs": [],
      "stateMutability": "nonpayable",
      "type": "function"
    },
    {
      "inputs": [
        {
          "internalType": "bytes4",
          "name": "interfaceID",
          "type": "bytes4"
        }
      ],
      "name": "supportsInterface",
      "outputs": [
        {
          "internalType": "bool",
          "name": "",
          "type": "bool"
        }
      ],
      "stateMutability": "view",
      "type": "function"
    },
    {
      "inputs": [],
      "name": "symbol",
      "outputs": [
        {
          "internalType": "string",
          "name": "",
          "type": "string"
        }
      ],
      "stateMutability": "pure",
      "type": "function"
    },
    {
      "inputs": [
        {
          "internalType": "uint256",
          "name": "tokenID",
          "type": "uint256"
        }
      ],
      "name": "tokenURI",
      "outputs": [
        {
          "internalType": "string",
          "name": "",
          "type": "string"
        }
      ],
      "stateMutability": "view",
      "type": "function"
    },
    {
      "inputs": [
        {
          "internalType": "address",
          "name": "from",
          "type": "address"
        },
        {
          "internalType": "address",
          "name": "to",
          "type": "address"
        },
        {
          "internalType": "uint256",
          "name": "tokenID",
          "type": "uint256"
        }
      ],
      "name": "transferFrom",
      "outputs": [],
      "stateMutability": "nonpayable",
      "type": "function"
    }
  ],
  "contractName": "VitalikSecret",
  "sourceName": "src/VitalikSecret.sol",
  "bytecode": "0x60a0604052600f60805234801561001557600080fd5b50608051611aa36100316000396000610d500152611aa36000f3fe608060405234801561001057600080fd5b50600436106101515760003560e01c806395d89b41116100cd578063c87b56dd11610081578063e985e9c511610066578063e985e9c51461039a578063f3945282146103e3578063f964d1091461040357600080fd5b8063c87b56dd1461033d578063d9158ec81461035e57600080fd5b8063b88d4fde116100b2578063b88d4fde1461030f578063bdffd28214610322578063c370c3c71461032a57600080fd5b806395d89b41146102c3578063a22cb465146102fc57600080fd5b806323b872dd1161012457806348f3c51c1161010957806348f3c51c146102335780636352211e1461028f57806370a08231146102a257600080fd5b806323b872dd1461020d57806342842e0e1461022057600080fd5b806301ffc9a71461015657806306fdde031461017e578063081812fc146101c0578063095ea7b3146101f8575b600080fd5b6101696101643660046114c0565b61043f565b60405190151581526020015b60405180910390f35b60408051808201909152600e81527f564954414c494b2053454352455400000000000000000000000000000000000060208201525b6040516101759190611548565b6101d36101ce36600461155b565b610524565b60405173ffffffffffffffffffffffffffffffffffffffff9091168152602001610175565b61020b610206366004611598565b6105e8565b005b61020b61021b3660046115c2565b6106f9565b61020b61022e3660046115c2565b610977565b61026361024136600461155b565b6000908152602081905260409020549067ffffffffffffffff60b883901c1690565b6040805173ffffffffffffffffffffffffffffffffffffffff9093168352602083019190915201610175565b6101d361029d36600461155b565b610997565b6102b56102b03660046115fe565b6109fb565b604051908152602001610175565b60408051808201909152600381527f565453000000000000000000000000000000000000000000000000000000000060208201526101b3565b61020b61030a366004611619565b610a8b565b61020b61031d366004611684565b610a9a565b6102b5600481565b61020b6103383660046117ca565b610d1a565b6101b361034b36600461155b565b5060408051602081019091526000815290565b6101b36040518060400160405280601281526020017f307831323334353637383941424344454630000000000000000000000000000081525081565b6101696103a836600461180c565b73ffffffffffffffffffffffffffffffffffffffff918216600090815260026020908152604080832093909416825291909152205460ff1690565b6103f66103f13660046117ca565b610e32565b604051610175919061183f565b6101b36040518060400160405280601281526020017f307832313334353637383941424344464530000000000000000000000000000081525081565b60007f01ffc9a7000000000000000000000000000000000000000000000000000000007fffffffff00000000000000000000000000000000000000000000000000000000831614806104d257507f80ac58cd000000000000000000000000000000000000000000000000000000007fffffffff000000000000000000000000000000000000000000000000000000008316145b8061051e57507f5b5e139f000000000000000000000000000000000000000000000000000000007fffffffff000000000000000000000000000000000000000000000000000000008316145b92915050565b6000818152602081905260408120547f80000000000000000000000000000000000000000000000000000000000000008082161473ffffffffffffffffffffffffffffffffffffffff82166105ad576040517f38077a2b000000000000000000000000000000000000000000000000000000008152600481018590526024015b60405180910390fd5b80156105de5750505060009081526003602052604090205473ffffffffffffffffffffffffffffffffffffffff1690565b5060009392505050565b6000818152602081905260409020546affffffffffffffffffffff60a082901c1673ffffffffffffffffffffffffffffffffffffffff8216610659576040517f38077a2b000000000000000000000000000000000000000000000000000000008152600481018490526024016105a4565b3373ffffffffffffffffffffffffffffffffffffffff8316148015906106b0575073ffffffffffffffffffffffffffffffffffffffff8216600090815260026020908152604080832033845290915290205460ff16155b156106e7576040517fea8e4eb500000000000000000000000000000000000000000000000000000000815260040160405180910390fd5b6106f382828686610f69565b50505050565b6000818152602081905260409020546affffffffffffffffffffff60a082901c167f80000000000000000000000000000000000000000000000000000000000000008083161473ffffffffffffffffffffffffffffffffffffffff831661078f576040517f38077a2b000000000000000000000000000000000000000000000000000000008152600481018590526024016105a4565b8273ffffffffffffffffffffffffffffffffffffffff168673ffffffffffffffffffffffffffffffffffffffff1614610814576040517f23295f0e00000000000000000000000000000000000000000000000000000000815273ffffffffffffffffffffffffffffffffffffffff8088166004830152841660248201526044016105a4565b73ffffffffffffffffffffffffffffffffffffffff8516158061084c575073ffffffffffffffffffffffffffffffffffffffff851630145b1561089b576040517f8e4c8aa600000000000000000000000000000000000000000000000000000000815273ffffffffffffffffffffffffffffffffffffffff861660048201526024016105a4565b3373ffffffffffffffffffffffffffffffffffffffff87161461095d578080156108e8575060008481526003602052604090205473ffffffffffffffffffffffffffffffffffffffff1633145b158015610926575073ffffffffffffffffffffffffffffffffffffffff8616600090815260026020908152604080832033845290915290205460ff16155b1561095d576040517fea8e4eb500000000000000000000000000000000000000000000000000000000815260040160405180910390fd5b61096f868686601886901c15156110f2565b505050505050565b61099283838360405180602001604052806000815250610a9a565b505050565b60008181526020819052604090205473ffffffffffffffffffffffffffffffffffffffff81166109f6576040517f38077a2b000000000000000000000000000000000000000000000000000000008152600481018390526024016105a4565b919050565b600073ffffffffffffffffffffffffffffffffffffffff8216610a62576040517f8e4c8aa600000000000000000000000000000000000000000000000000000000815273ffffffffffffffffffffffffffffffffffffffff831660048201526024016105a4565b5073ffffffffffffffffffffffffffffffffffffffff1660009081526001602052604090205490565b610a963383836111d5565b5050565b6000828152602081905260409020546affffffffffffffffffffff60a082901c167f80000000000000000000000000000000000000000000000000000000000000008083161473ffffffffffffffffffffffffffffffffffffffff8316610b30576040517f38077a2b000000000000000000000000000000000000000000000000000000008152600481018690526024016105a4565b8673ffffffffffffffffffffffffffffffffffffffff168373ffffffffffffffffffffffffffffffffffffffff1614610bb5576040517f23295f0e00000000000000000000000000000000000000000000000000000000815273ffffffffffffffffffffffffffffffffffffffff8089166004830152841660248201526044016105a4565b73ffffffffffffffffffffffffffffffffffffffff86161580610bed575073ffffffffffffffffffffffffffffffffffffffff861630145b15610c3c576040517f8e4c8aa600000000000000000000000000000000000000000000000000000000815273ffffffffffffffffffffffffffffffffffffffff871660048201526024016105a4565b3373ffffffffffffffffffffffffffffffffffffffff881614610cfe57808015610c89575060008581526003602052604090205473ffffffffffffffffffffffffffffffffffffffff1633145b158015610cc7575073ffffffffffffffffffffffffffffffffffffffff8716600090815260026020908152604080832033845290915290205460ff16155b15610cfe576040517fea8e4eb500000000000000000000000000000000000000000000000000000000815260040160405180910390fd5b610d11878787601886901c15158861126d565b50505050505050565b60408051808201909152601281527f307832313334353637383941424344464530000000000000000000000000000060208201527f000000000000000000000000000000000000000000000000000000000000000060005b83811015610e2b576000610dad8484888886818110610d9357610d936118a4565b9050602002016020810190610da891906118d3565b6112d9565b9350905080610e18576040517f08c379a000000000000000000000000000000000000000000000000000000000815260206004820152600c60248201527f494e56414c49445f4d4f5645000000000000000000000000000000000000000060448201526064016105a4565b5080610e2381611923565b915050610d72565b5050505050565b60608167ffffffffffffffff811115610e4d57610e4d611655565b604051908082528060200260200182016040528015610e9257816020015b6040805180820190915260008082526020820152815260200190600190039081610e6b5790505b50905060005b82811015610f62576000806000868685818110610eb757610eb76118a4565b90506020020135815260200190815260200160002054905080838381518110610ee257610ee26118a4565b60200260200101516000019073ffffffffffffffffffffffffffffffffffffffff16908173ffffffffffffffffffffffffffffffffffffffff168152505060b881901c67ffffffffffffffff16838381518110610f4157610f416118a4565b60209081029190910181015101525080610f5a81611923565b915050610e98565b5092915050565b601883901c6000610f7b85600161195b565b905081601882901c14610fba576040517fadc1557200000000000000000000000000000000000000000000000000000000815260040160405180910390fd5b73ffffffffffffffffffffffffffffffffffffffff841661100757600083815260208190526040902060a082901b73ffffffffffffffffffffffffffffffffffffffff881617905561108f565b60008381526020818152604080832073ffffffffffffffffffffffffffffffffffffffff8a811660a087901b177f800000000000000000000000000000000000000000000000000000000000000017909155600390925290912080547fffffffffffffffffffffffff0000000000000000000000000000000000000000169186169190911790555b828473ffffffffffffffffffffffffffffffffffffffff168773ffffffffffffffffffffffffffffffffffffffff167f8c5be1e5ebec7d5bd14f71427d1e84f3dd0314c0f7b2291e5b200ac8c7c3b92560405160405180910390a4505050505050565b73ffffffffffffffffffffffffffffffffffffffff831660009081526001602081905260409091208054909101905580156111735773ffffffffffffffffffffffffffffffffffffffff8416600090815260016020526040902080547fffffffffffffffffffffffffffffffffffffffffffffffffffffffffffffffff0190555b6000828152602081905260408082204360b81b73ffffffffffffffffffffffffffffffffffffffff80881691821790925591518593918816917fddf252ad1be2c89b69c2b068fc378daa952ba7f163c4a11628f55a4df523b3ef91a450505050565b73ffffffffffffffffffffffffffffffffffffffff83811660008181526002602090815260408083209487168084529482529182902080547fffffffffffffffffffffffffffffffffffffffffffffffffffffffffffffff001686151590811790915591519182527f17307eab39ab6107e8899845ad3d59bd9653f200f220920489ca2b5937696c31910160405180910390a3505050565b611279858585856110f2565b73ffffffffffffffffffffffffffffffffffffffff84163b15610e2b576112a333868686856113ba565b610e2b576040517f4e472e5e00000000000000000000000000000000000000000000000000000000815260040160405180910390fd5b600080806112e860048661199d565b905060006112f76004876119b1565b9050600085600381111561130d5761130d6119c5565b0361132f5761131e600160046119f4565b82101561132a57600193505b6113b0565b6001856003811115611343576113436119c5565b0361136457611354600160046119f4565b81101561132a57600193506113b0565b6002856003811115611378576113786119c5565b0361138c57811561132a57600193506113b0565b60038560038111156113a0576113a06119c5565b036113b05780156113b057600193505b5050935093915050565b6000808473ffffffffffffffffffffffffffffffffffffffff1663150b7a02888887876040518563ffffffff1660e01b81526004016113fc9493929190611a07565b6020604051808303816000875af115801561141b573d6000803e3d6000fd5b505050506040513d601f19601f8201168201806040525081019061143f9190611a50565b7fffffffff00000000000000000000000000000000000000000000000000000000167f150b7a02000000000000000000000000000000000000000000000000000000001491505095945050505050565b7fffffffff00000000000000000000000000000000000000000000000000000000811681146114bd57600080fd5b50565b6000602082840312156114d257600080fd5b81356114dd8161148f565b9392505050565b6000815180845260005b8181101561150a576020818501810151868301820152016114ee565b5060006020828601015260207fffffffffffffffffffffffffffffffffffffffffffffffffffffffffffffffe0601f83011685010191505092915050565b6020815260006114dd60208301846114e4565b60006020828403121561156d57600080fd5b5035919050565b803573ffffffffffffffffffffffffffffffffffffffff811681146109f657600080fd5b600080604083850312156115ab57600080fd5b6115b483611574565b946020939093013593505050565b6000806000606084860312156115d757600080fd5b6115e084611574565b92506115ee60208501611574565b9150604084013590509250925092565b60006020828403121561161057600080fd5b6114dd82611574565b6000806040838503121561162c57600080fd5b61163583611574565b91506020830135801515811461164a57600080fd5b809150509250929050565b7f4e487b7100000000000000000000000000000000000000000000000000000000600052604160045260246000fd5b6000806000806080858703121561169a57600080fd5b6116a385611574565b93506116b160208601611574565b925060408501359150606085013567ffffffffffffffff808211156116d557600080fd5b818701915087601f8301126116e957600080fd5b8135818111156116fb576116fb611655565b604051601f82017fffffffffffffffffffffffffffffffffffffffffffffffffffffffffffffffe0908116603f0116810190838211818310171561174157611741611655565b816040528281528a602084870101111561175a57600080fd5b82602086016020830137600060208483010152809550505050505092959194509250565b60008083601f84011261179057600080fd5b50813567ffffffffffffffff8111156117a857600080fd5b6020830191508360208260051b85010111156117c357600080fd5b9250929050565b600080602083850312156117dd57600080fd5b823567ffffffffffffffff8111156117f457600080fd5b6118008582860161177e565b90969095509350505050565b6000806040838503121561181f57600080fd5b61182883611574565b915061183660208401611574565b90509250929050565b602080825282518282018190526000919060409081850190868401855b82811015611897578151805173ffffffffffffffffffffffffffffffffffffffff16855286015186850152928401929085019060010161185c565b5091979650505050505050565b7f4e487b7100000000000000000000000000000000000000000000000000000000600052603260045260246000fd5b6000602082840312156118e557600080fd5b8135600481106114dd57600080fd5b7f4e487b7100000000000000000000000000000000000000000000000000000000600052601160045260246000fd5b60007fffffffffffffffffffffffffffffffffffffffffffffffffffffffffffffffff8203611954576119546118f4565b5060010190565b8082018082111561051e5761051e6118f4565b7f4e487b7100000000000000000000000000000000000000000000000000000000600052601260045260246000fd5b6000826119ac576119ac61196e565b500690565b6000826119c0576119c061196e565b500490565b7f4e487b7100000000000000000000000000000000000000000000000000000000600052602160045260246000fd5b8181038181111561051e5761051e6118f4565b600073ffffffffffffffffffffffffffffffffffffffff808716835280861660208401525083604083015260806060830152611a4660808301846114e4565b9695505050505050565b600060208284031215611a6257600080fd5b81516114dd8161148f56fea264697066735822122012e0017d728e57d31d65c17e07771330b08b70e61e3e9fd634906b30ae10a87d64736f6c63430008140033",
  "linkReferences": {},
  "deployedLinkReferences": {},
  "devdoc": {
    "errors": {
      "InvalidAddress(address)": [
        {
          "params": {
            "addr": "invalid address"
          }
        }
      ],
      "NonExistentToken(uint256)": [
        {
          "params": {
            "tokenID": "id of the expected token"
          }
        }
      ],
      "NotOwner(address,address)": [
        {
          "params": {
            "currentOwner": "the current owner",
            "provided": "the address expected to be the current owner"
          }
        }
      ]
    },
    "events": {
      "Approval(address,address,uint256)": {
        "params": {
          "approved": "account who can know transfer on the owner's behalf",
          "owner": "current owner of the token",
          "tokenID": "id of the token being approved"
        }
      },
      "ApprovalForAll(address,address,bool)": {
        "params": {
          "approved": "whether it is approved or not",
          "operator": "account who can know transfer on the owner's behalf",
          "owner": "the account granting rights over all of its token"
        }
      },
      "Transfer(address,address,uint256)": {
        "params": {
          "from": "the account the token is sent from",
          "to": "the account the token is sent to",
          "tokenID": "id of the token being sent"
        }
      }
    },
    "kind": "dev",
    "methods": {
      "approve(address,uint256)": {
        "params": {
          "operator": "The address receiving the approval.",
          "tokenID": "The id of the token."
        }
      },
      "balanceOf(address)": {
        "params": {
          "owner": "The address to look for."
        },
        "returns": {
          "balance": "The number of tokens owned by the address."
        }
      },
      "getApproved(uint256)": {
        "params": {
          "tokenID": "The id of the token."
        },
        "returns": {
          "operator": "The address of the operator."
        }
      },
      "isApprovedForAll(address,address)": {
        "params": {
          "operator": "The address of the operator.",
          "owner": "The address of the owner."
        },
        "returns": {
          "isOperator": "The status of the approval."
        }
      },
      "ownerAndLastTransferBlockNumberList(uint256[])": {
        "params": {
          "tokenIDs": "The list of token ids to check."
        },
        "returns": {
          "ownersData": "The list of (owner, lastTransferBlockNumber) for each ids given as input."
        }
      },
      "ownerAndLastTransferBlockNumberOf(uint256)": {
        "params": {
          "tokenID": "The id of the token."
        },
        "returns": {
          "blockNumber": "The blocknumber at which the last transfer of that id happened.",
          "owner": "The address of the token owner."
        }
      },
      "ownerOf(uint256)": {
        "params": {
          "tokenID": "The id of the token."
        },
        "returns": {
          "owner": "The address of the token owner."
        }
      },
      "safeTransferFrom(address,address,uint256)": {
        "params": {
          "from": "The send of the token.",
          "to": "The recipient of the token.",
          "tokenID": "The id of the token."
        }
      },
      "safeTransferFrom(address,address,uint256,bytes)": {
        "params": {
          "data": "Additional data.",
          "from": "The sender of the token.",
          "to": "The recipient of the token.",
          "tokenID": "The id of the token."
        }
      },
      "setApprovalForAll(address,bool)": {
        "params": {
          "approved": "The determination of the approval.",
          "operator": "The address receiving the approval."
        }
      },
      "supportsInterface(bytes4)": {
        "details": "Interface identification is specified in ERC-165. This function  uses less than 30,000 gas.",
        "params": {
          "interfaceID": "The interface identifier, as specified in ERC-165"
        },
        "returns": {
          "_0": "`true` if the contract implements `interfaceID` and  `interfaceID` is not 0xffffffff, `false` otherwise"
        }
      },
      "tokenURI(uint256)": {
        "details": "Throws if `tokenID` is not a valid NFT. URIs are defined in RFC  3986. The URI may point to a JSON file that conforms to the \"ERC721  Metadata JSON Schema\".",
        "params": {
          "tokenID": "id of the token being queried."
        }
      },
      "transferFrom(address,address,uint256)": {
        "params": {
          "from": "The sender of the token.",
          "to": "The recipient of the token.",
          "tokenID": "The id of the token."
        }
      }
    },
    "version": 1
  },
  "evm": {
    "gasEstimates": {
      "creation": {
        "codeDepositCost": "1363800",
        "executionCost": "infinite",
        "totalCost": "infinite"
      },
      "external": {
        "RANDOM()": "infinite",
        "SIZE()": "262",
        "SOLUTION()": "infinite",
        "approve(address,uint256)": "53565",
        "balanceOf(address)": "2642",
        "getApproved(uint256)": "4768",
        "isApprovedForAll(address,address)": "infinite",
        "name()": "infinite",
        "ownerAndLastTransferBlockNumberList(uint256[])": "infinite",
        "ownerAndLastTransferBlockNumberOf(uint256)": "2540",
        "ownerOf(uint256)": "2557",
        "proposeSolution(uint8[])": "infinite",
        "safeTransferFrom(address,address,uint256)": "infinite",
        "safeTransferFrom(address,address,uint256,bytes)": "infinite",
        "setApprovalForAll(address,bool)": "26665",
        "supportsInterface(bytes4)": "456",
        "symbol()": "infinite",
        "tokenURI(uint256)": "539",
        "transferFrom(address,address,uint256)": "infinite"
      },
      "internal": {
        "_at(bytes memory,uint256)": "infinite",
        "step(bytes memory,uint256,enum VitalikSecret.Move)": "393"
      }
    }
  },
  "storageLayout": {
    "storage": [
      {
        "astId": 36,
        "contract": "src/VitalikSecret.sol:VitalikSecret",
        "label": "_owners",
        "offset": 0,
        "slot": "0",
        "type": "t_mapping(t_uint256,t_uint256)"
      },
      {
        "astId": 40,
        "contract": "src/VitalikSecret.sol:VitalikSecret",
        "label": "_balances",
        "offset": 0,
        "slot": "1",
        "type": "t_mapping(t_address,t_uint256)"
      },
      {
        "astId": 46,
        "contract": "src/VitalikSecret.sol:VitalikSecret",
        "label": "_operatorsForAll",
        "offset": 0,
        "slot": "2",
        "type": "t_mapping(t_address,t_mapping(t_address,t_bool))"
      },
      {
        "astId": 50,
        "contract": "src/VitalikSecret.sol:VitalikSecret",
        "label": "_operators",
        "offset": 0,
        "slot": "3",
        "type": "t_mapping(t_uint256,t_address)"
      }
    ],
    "types": {
      "t_address": {
        "encoding": "inplace",
        "label": "address",
        "numberOfBytes": "20"
      },
      "t_bool": {
        "encoding": "inplace",
        "label": "bool",
        "numberOfBytes": "1"
      },
      "t_mapping(t_address,t_bool)": {
        "encoding": "mapping",
        "key": "t_address",
        "label": "mapping(address => bool)",
        "numberOfBytes": "32",
        "value": "t_bool"
      },
      "t_mapping(t_address,t_mapping(t_address,t_bool))": {
        "encoding": "mapping",
        "key": "t_address",
        "label": "mapping(address => mapping(address => bool))",
        "numberOfBytes": "32",
        "value": "t_mapping(t_address,t_bool)"
      },
      "t_mapping(t_address,t_uint256)": {
        "encoding": "mapping",
        "key": "t_address",
        "label": "mapping(address => uint256)",
        "numberOfBytes": "32",
        "value": "t_uint256"
      },
      "t_mapping(t_uint256,t_address)": {
        "encoding": "mapping",
        "key": "t_uint256",
        "label": "mapping(uint256 => address)",
        "numberOfBytes": "32",
        "value": "t_address"
      },
      "t_mapping(t_uint256,t_uint256)": {
        "encoding": "mapping",
        "key": "t_uint256",
        "label": "mapping(uint256 => uint256)",
        "numberOfBytes": "32",
        "value": "t_uint256"
      },
      "t_uint256": {
        "encoding": "inplace",
        "label": "uint256",
        "numberOfBytes": "32"
      }
    }
  },
  "userdoc": {
    "errors": {
      "InvalidAddress(address)": [
        {
          "notice": "An invalid address is specified (for example: zero address)"
        }
      ],
      "NonExistentToken(uint256)": [
        {
          "notice": "The token does not exist"
        }
      ],
      "NonceOverflow()": [
        {
          "notice": "The Nonce overflowed, make a transfer to self to allow new nonces."
        }
      ],
      "NotAuthorized()": [
        {
          "notice": "Not authorized to perform this operation"
        }
      ],
      "NotOwner(address,address)": [
        {
          "notice": "The address from which the token is sent is not the current owner"
        }
      ],
      "TransferRejected()": [
        {
          "notice": "The Transfer was rejected by the destination"
        }
      ]
    },
    "events": {
      "Approval(address,address,uint256)": {
        "notice": "Triggered when a token is approved to be sent by another account  Note tat the approval get reset when a Transfer event for that same token is emitted."
      },
      "ApprovalForAll(address,address,bool)": {
        "notice": "Triggered when an account approve or disaprove another to transfer on its behalf"
      },
      "Transfer(address,address,uint256)": {
        "notice": "Triggered when a token is transferred"
      }
    },
    "kind": "user",
    "methods": {
      "approve(address,uint256)": {
        "notice": "Approve an operator to transfer a specific token on the senders behalf."
      },
      "balanceOf(address)": {
        "notice": "Get the number of tokens owned by an address."
      },
      "getApproved(uint256)": {
        "notice": "Get the approved operator for a specific token."
      },
      "isApprovedForAll(address,address)": {
        "notice": "Check if the sender approved the operator to transfer any of its tokens."
      },
      "name()": {
        "notice": "A descriptive name for a collection of NFTs in this contract"
      },
      "ownerAndLastTransferBlockNumberList(uint256[])": {
        "notice": "Get the list of owner of a token and the blockNumber of its last transfer, useful to voting mechanism."
      },
      "ownerAndLastTransferBlockNumberOf(uint256)": {
        "notice": "Get the owner of a token and the blockNumber of the last transfer, useful to voting mechanism."
      },
      "ownerOf(uint256)": {
        "notice": "Get the owner of a token."
      },
      "safeTransferFrom(address,address,uint256)": {
        "notice": "Transfer a token between 2 addresses letting the receiver know of the transfer."
      },
      "safeTransferFrom(address,address,uint256,bytes)": {
        "notice": "Transfer a token between 2 addresses letting the receiver knows of the transfer."
      },
      "setApprovalForAll(address,bool)": {
        "notice": "Set the approval for an operator to manage all the tokens of the sender."
      },
      "supportsInterface(bytes4)": {
        "notice": "Query if a contract implements an interface"
      },
      "symbol()": {
        "notice": "An abbreviated name for NFTs in this contract"
      },
      "tokenURI(uint256)": {
        "notice": "A distinct Uniform Resource Identifier (URI) for a given asset."
      },
      "transferFrom(address,address,uint256)": {
        "notice": "Transfer a token between 2 addresses."
      }
    },
    "notice": "a puzzle",
    "version": 1
  },
  "argsData": "0x",
  "transaction": {
    "hash": "0xc6f45cea04b4e441af88fb3ba8c25e1110aed02ee94b906b0b4ff9fc48734341",
    "nonce": "0x0",
    "origin": "0x61c461ecc993aadeb7e4b47e96d1b8cc37314b20"
  }
}