{
  "address": "0x21d366ee3bbf67ab057c517380d37e54ffd9dfc0",
  "abi": [
    {
      "inputs": [
        {
          "internalType": "address",
          "name": "addr",
          "type": "address"
        }
      ],
      "name": "InvalidAddress",
      "type": "error"
    },
    {
      "inputs": [
        {
          "internalType": "uint256",
          "name": "tokenID",
          "type": "uint256"
        }
      ],
      "name": "NonExistentToken",
      "type": "error"
    },
    {
      "inputs": [],
      "name": "NonceOverflow",
      "type": "error"
    },
    {
      "inputs": [],
      "name": "NotAuthorized",
      "type": "error"
    },
    {
      "inputs": [
        {
          "internalType": "address",
          "name": "provided",
          "type": "address"
        },
        {
          "internalType": "address",
          "name": "currentOwner",
          "type": "address"
        }
      ],
      "name": "NotOwner",
      "type": "error"
    },
    {
      "inputs": [],
      "name": "TransferRejected",
      "type": "error"
    },
    {
      "anonymous": false,
      "inputs": [
        {
          "indexed": true,
          "internalType": "address",
          "name": "owner",
          "type": "address"
        },
        {
          "indexed": true,
          "internalType": "address",
          "name": "approved",
          "type": "address"
        },
        {
          "indexed": true,
          "internalType": "uint256",
          "name": "tokenID",
          "type": "uint256"
        }
      ],
      "name": "Approval",
      "type": "event"
    },
    {
      "anonymous": false,
      "inputs": [
        {
          "indexed": true,
          "internalType": "address",
          "name": "owner",
          "type": "address"
        },
        {
          "indexed": true,
          "internalType": "address",
          "name": "operator",
          "type": "address"
        },
        {
          "indexed": false,
          "internalType": "bool",
          "name": "approved",
          "type": "bool"
        }
      ],
      "name": "ApprovalForAll",
      "type": "event"
    },
    {
      "anonymous": false,
      "inputs": [
        {
          "indexed": true,
          "internalType": "address",
          "name": "from",
          "type": "address"
        },
        {
          "indexed": true,
          "internalType": "address",
          "name": "to",
          "type": "address"
        },
        {
          "indexed": true,
          "internalType": "uint256",
          "name": "tokenID",
          "type": "uint256"
        }
      ],
      "name": "Transfer",
      "type": "event"
    },
    {
      "inputs": [],
      "name": "SIZE",
      "outputs": [
        {
          "internalType": "uint256",
          "name": "",
          "type": "uint256"
        }
      ],
      "stateMutability": "view",
      "type": "function"
    },
    {
      "inputs": [
        {
          "internalType": "address",
          "name": "operator",
          "type": "address"
        },
        {
          "internalType": "uint256",
          "name": "tokenID",
          "type": "uint256"
        }
      ],
      "name": "approve",
      "outputs": [],
      "stateMutability": "nonpayable",
      "type": "function"
    },
    {
      "inputs": [
        {
          "internalType": "address",
          "name": "owner",
          "type": "address"
        }
      ],
      "name": "balanceOf",
      "outputs": [
        {
          "internalType": "uint256",
          "name": "balance",
          "type": "uint256"
        }
      ],
      "stateMutability": "view",
      "type": "function"
    },
    {
      "inputs": [
        {
          "internalType": "bytes32",
          "name": "_bytes32",
          "type": "bytes32"
        }
      ],
      "name": "bytes32ToHexString",
      "outputs": [
        {
          "internalType": "string",
          "name": "",
          "type": "string"
        }
      ],
      "stateMutability": "pure",
      "type": "function"
    },
    {
      "inputs": [
        {
          "internalType": "uint256",
          "name": "tokenID",
          "type": "uint256"
        }
      ],
      "name": "getApproved",
      "outputs": [
        {
          "internalType": "address",
          "name": "operator",
          "type": "address"
        }
      ],
      "stateMutability": "view",
      "type": "function"
    },
    {
      "inputs": [
        {
          "internalType": "address",
          "name": "owner",
          "type": "address"
        },
        {
          "internalType": "address",
          "name": "operator",
          "type": "address"
        }
      ],
      "name": "isApprovedForAll",
      "outputs": [
        {
          "internalType": "bool",
          "name": "isOperator",
          "type": "bool"
        }
      ],
      "stateMutability": "view",
      "type": "function"
    },
    {
      "inputs": [],
      "name": "lowestNumberOfMoves",
      "outputs": [
        {
          "internalType": "uint256",
          "name": "",
          "type": "uint256"
        }
      ],
      "stateMutability": "view",
      "type": "function"
    },
    {
      "inputs": [],
      "name": "name",
      "outputs": [
        {
          "internalType": "string",
          "name": "",
          "type": "string"
        }
      ],
      "stateMutability": "pure",
      "type": "function"
    },
    {
      "inputs": [
        {
          "internalType": "uint256[]",
          "name": "tokenIDs",
          "type": "uint256[]"
        }
      ],
      "name": "ownerAndLastTransferBlockNumberList",
      "outputs": [
        {
          "components": [
            {
              "internalType": "address",
              "name": "owner",
              "type": "address"
            },
            {
              "internalType": "uint256",
              "name": "lastTransferBlockNumber",
              "type": "uint256"
            }
          ],
          "internalType": "struct IERC721WithBlocknumber.OwnerData[]",
          "name": "ownersData",
          "type": "tuple[]"
        }
      ],
      "stateMutability": "view",
      "type": "function"
    },
    {
      "inputs": [
        {
          "internalType": "uint256",
          "name": "tokenID",
          "type": "uint256"
        }
      ],
      "name": "ownerAndLastTransferBlockNumberOf",
      "outputs": [
        {
          "internalType": "address",
          "name": "owner",
          "type": "address"
        },
        {
          "internalType": "uint256",
          "name": "blockNumber",
          "type": "uint256"
        }
      ],
      "stateMutability": "view",
      "type": "function"
    },
    {
      "inputs": [
        {
          "internalType": "uint256",
          "name": "tokenID",
          "type": "uint256"
        }
      ],
      "name": "ownerOf",
      "outputs": [
        {
          "internalType": "address",
          "name": "owner",
          "type": "address"
        }
      ],
      "stateMutability": "view",
      "type": "function"
    },
    {
      "inputs": [
        {
          "internalType": "enum VitalikSecret.Move[]",
          "name": "moves",
          "type": "uint8[]"
        }
      ],
      "name": "proposeSolution",
      "outputs": [],
      "stateMutability": "nonpayable",
      "type": "function"
    },
    {
      "inputs": [
        {
          "internalType": "uint256",
          "name": "numMoves",
          "type": "uint256"
        },
        {
          "internalType": "bytes",
          "name": "proof",
          "type": "bytes"
        }
      ],
      "name": "proposeSolutionProof",
      "outputs": [],
      "stateMutability": "nonpayable",
      "type": "function"
    },
    {
      "inputs": [],
      "name": "randomState",
      "outputs": [
        {
          "internalType": "uint8[16]",
          "name": "",
          "type": "uint8[16]"
        }
      ],
      "stateMutability": "view",
      "type": "function"
    },
    {
      "inputs": [
        {
          "internalType": "address",
          "name": "from",
          "type": "address"
        },
        {
          "internalType": "address",
          "name": "to",
          "type": "address"
        },
        {
          "internalType": "uint256",
          "name": "tokenID",
          "type": "uint256"
        }
      ],
      "name": "safeTransferFrom",
      "outputs": [],
      "stateMutability": "nonpayable",
      "type": "function"
    },
    {
      "inputs": [
        {
          "internalType": "address",
          "name": "from",
          "type": "address"
        },
        {
          "internalType": "address",
          "name": "to",
          "type": "address"
        },
        {
          "internalType": "uint256",
          "name": "tokenID",
          "type": "uint256"
        },
        {
          "internalType": "bytes",
          "name": "data",
          "type": "bytes"
        }
      ],
      "name": "safeTransferFrom",
      "outputs": [],
      "stateMutability": "nonpayable",
      "type": "function"
    },
    {
      "inputs": [
        {
          "internalType": "address",
          "name": "operator",
          "type": "address"
        },
        {
          "internalType": "bool",
          "name": "approved",
          "type": "bool"
        }
      ],
      "name": "setApprovalForAll",
      "outputs": [],
      "stateMutability": "nonpayable",
      "type": "function"
    },
    {
      "inputs": [
        {
          "internalType": "bytes4",
          "name": "interfaceID",
          "type": "bytes4"
        }
      ],
      "name": "supportsInterface",
      "outputs": [
        {
          "internalType": "bool",
          "name": "",
          "type": "bool"
        }
      ],
      "stateMutability": "view",
      "type": "function"
    },
    {
      "inputs": [],
      "name": "symbol",
      "outputs": [
        {
          "internalType": "string",
          "name": "",
          "type": "string"
        }
      ],
      "stateMutability": "pure",
      "type": "function"
    },
    {
      "inputs": [
        {
          "internalType": "uint256",
          "name": "numMoves",
          "type": "uint256"
        }
      ],
      "name": "testMint",
      "outputs": [],
      "stateMutability": "nonpayable",
      "type": "function"
    },
    {
      "inputs": [
        {
          "internalType": "uint256",
          "name": "tokenID",
          "type": "uint256"
        }
      ],
      "name": "tokenURI",
      "outputs": [
        {
          "internalType": "string",
          "name": "",
          "type": "string"
        }
      ],
      "stateMutability": "pure",
      "type": "function"
    },
    {
      "inputs": [
        {
          "internalType": "address",
          "name": "from",
          "type": "address"
        },
        {
          "internalType": "address",
          "name": "to",
          "type": "address"
        },
        {
          "internalType": "uint256",
          "name": "tokenID",
          "type": "uint256"
        }
      ],
      "name": "transferFrom",
      "outputs": [],
      "stateMutability": "nonpayable",
      "type": "function"
    }
  ],
  "contractName": "VitalikSecret",
  "sourceName": "src/VitalikSecret.sol",
  "bytecode": "0x60c06040526007608052600a60a05234801561001a57600080fd5b5060805160a051612a1061004e60003960008181610fa401528181611047015261111301526000610eb40152612a106000f3fe608060405234801561001057600080fd5b50600436106101825760003560e01c80639e06c90b116100d8578063c68b37871161008c578063f394528211610066578063f394528214610403578063f66168c814610423578063fd82234c1461043857600080fd5b8063c68b378714610394578063c87b56dd146103a7578063e985e9c5146103ba57600080fd5b8063b88d4fde116100bd578063b88d4fde14610366578063bdffd28214610379578063c370c3c71461038157600080fd5b80639e06c90b14610340578063a22cb4651461035357600080fd5b80632f3f94ae1161013a5780636352211e116101145780636352211e146102d357806370a08231146102e657806395d89b411461030757600080fd5b80632f3f94ae1461025157806342842e0e1461026457806348f3c51c1461027757600080fd5b8063081812fc1161016b578063081812fc146101f1578063095ea7b31461022957806323b872dd1461023e57600080fd5b806301ffc9a71461018757806306fdde03146101af575b600080fd5b61019a610195366004612024565b610441565b60405190151581526020015b60405180910390f35b60408051808201909152600e81527f564954414c494b2053454352455400000000000000000000000000000000000060208201525b6040516101a691906120b6565b6102046101ff3660046120c9565b610526565b60405173ffffffffffffffffffffffffffffffffffffffff90911681526020016101a6565b61023c610237366004612106565b6105ea565b005b61023c61024c366004612130565b6106fb565b61023c61025f3660046120c9565b610979565b61023c610272366004612130565b6109a1565b6102a76102853660046120c9565b6000908152602081905260409020549067ffffffffffffffff60b883901c1690565b6040805173ffffffffffffffffffffffffffffffffffffffff90931683526020830191909152016101a6565b6102046102e13660046120c9565b6109c1565b6102f96102f436600461216c565b610a25565b6040519081526020016101a6565b60408051808201909152600381527f565453000000000000000000000000000000000000000000000000000000000060208201526101e4565b61023c61034e366004612187565b610ab5565b61023c610361366004612203565b610b9f565b61023c61037436600461226e565b610bae565b6102f9600481565b61023c61038f3660046123b4565b610e2e565b6101e46103a23660046120c9565b61125f565b6101e46103b53660046120c9565b6114eb565b61019a6103c83660046123f6565b73ffffffffffffffffffffffffffffffffffffffff918216600090815260026020908152604080832093909416825291909152205460ff1690565b6104166104113660046123b4565b611556565b6040516101a69190612429565b61042b61168d565b6040516101a6919061248e565b6102f960055481565b60007f01ffc9a7000000000000000000000000000000000000000000000000000000007fffffffff00000000000000000000000000000000000000000000000000000000831614806104d457507f80ac58cd000000000000000000000000000000000000000000000000000000007fffffffff000000000000000000000000000000000000000000000000000000008316145b8061052057507f5b5e139f000000000000000000000000000000000000000000000000000000007fffffffff000000000000000000000000000000000000000000000000000000008316145b92915050565b6000818152602081905260408120547f80000000000000000000000000000000000000000000000000000000000000008082161473ffffffffffffffffffffffffffffffffffffffff82166105af576040517f38077a2b000000000000000000000000000000000000000000000000000000008152600481018590526024015b60405180910390fd5b80156105e05750505060009081526003602052604090205473ffffffffffffffffffffffffffffffffffffffff1690565b5060009392505050565b6000818152602081905260409020546affffffffffffffffffffff60a082901c1673ffffffffffffffffffffffffffffffffffffffff821661065b576040517f38077a2b000000000000000000000000000000000000000000000000000000008152600481018490526024016105a6565b3373ffffffffffffffffffffffffffffffffffffffff8316148015906106b2575073ffffffffffffffffffffffffffffffffffffffff8216600090815260026020908152604080832033845290915290205460ff16155b156106e9576040517fea8e4eb500000000000000000000000000000000000000000000000000000000815260040160405180910390fd5b6106f5828286866117f9565b50505050565b6000818152602081905260409020546affffffffffffffffffffff60a082901c167f80000000000000000000000000000000000000000000000000000000000000008083161473ffffffffffffffffffffffffffffffffffffffff8316610791576040517f38077a2b000000000000000000000000000000000000000000000000000000008152600481018590526024016105a6565b8273ffffffffffffffffffffffffffffffffffffffff168673ffffffffffffffffffffffffffffffffffffffff1614610816576040517f23295f0e00000000000000000000000000000000000000000000000000000000815273ffffffffffffffffffffffffffffffffffffffff8088166004830152841660248201526044016105a6565b73ffffffffffffffffffffffffffffffffffffffff8516158061084e575073ffffffffffffffffffffffffffffffffffffffff851630145b1561089d576040517f8e4c8aa600000000000000000000000000000000000000000000000000000000815273ffffffffffffffffffffffffffffffffffffffff861660048201526024016105a6565b3373ffffffffffffffffffffffffffffffffffffffff87161461095f578080156108ea575060008481526003602052604090205473ffffffffffffffffffffffffffffffffffffffff1633145b158015610928575073ffffffffffffffffffffffffffffffffffffffff8616600090815260026020908152604080832033845290915290205460ff16155b1561095f576040517fea8e4eb500000000000000000000000000000000000000000000000000000000815260040160405180910390fd5b610971868686601886901c1515611982565b505050505050565b6005541580610989575060055481105b156109945760058190555b61099e3382611a65565b50565b6109bc83838360405180602001604052806000815250610bae565b505050565b60008181526020819052604090205473ffffffffffffffffffffffffffffffffffffffff8116610a20576040517f38077a2b000000000000000000000000000000000000000000000000000000008152600481018390526024016105a6565b919050565b600073ffffffffffffffffffffffffffffffffffffffff8216610a8c576040517f8e4c8aa600000000000000000000000000000000000000000000000000000000815273ffffffffffffffffffffffffffffffffffffffff831660048201526024016105a6565b5073ffffffffffffffffffffffffffffffffffffffff1660009081526001602052604090205490565b6040805160028082526060820183526000926020830190803683370190505090508360001b81600081518110610aed57610aed6124c3565b60209081029190910101528051339082906001908110610b0f57610b0f6124c3565b60209081029190910101526005541580610b2a575060055484105b610b90576040517f08c379a000000000000000000000000000000000000000000000000000000000815260206004820152601060248201527f4d414b455f4245545445525f4d4f56450000000000000000000000000000000060448201526064016105a6565b60058490556106f53385611a65565b610baa338383611a83565b5050565b6000828152602081905260409020546affffffffffffffffffffff60a082901c167f80000000000000000000000000000000000000000000000000000000000000008083161473ffffffffffffffffffffffffffffffffffffffff8316610c44576040517f38077a2b000000000000000000000000000000000000000000000000000000008152600481018690526024016105a6565b8673ffffffffffffffffffffffffffffffffffffffff168373ffffffffffffffffffffffffffffffffffffffff1614610cc9576040517f23295f0e00000000000000000000000000000000000000000000000000000000815273ffffffffffffffffffffffffffffffffffffffff8089166004830152841660248201526044016105a6565b73ffffffffffffffffffffffffffffffffffffffff86161580610d01575073ffffffffffffffffffffffffffffffffffffffff861630145b15610d50576040517f8e4c8aa600000000000000000000000000000000000000000000000000000000815273ffffffffffffffffffffffffffffffffffffffff871660048201526024016105a6565b3373ffffffffffffffffffffffffffffffffffffffff881614610e1257808015610d9d575060008581526003602052604090205473ffffffffffffffffffffffffffffffffffffffff1633145b158015610ddb575073ffffffffffffffffffffffffffffffffffffffff8716600090815260026020908152604080832033845290915290205460ff16155b15610e12576040517fea8e4eb500000000000000000000000000000000000000000000000000000000815260040160405180910390fd5b610e25878787601886901c151588611b1b565b50505050505050565b6040805161020081018252600281526004602082015260079181019190915260036060820152600a6080820152600960a0820152600660c0820152600060e0820181905260056101008301526001610120830152600b6101408301526008610160830152600c610180830152600d6101a0830152600e6101c0830152600f6101e08301527f0000000000000000000000000000000000000000000000000000000000000000905b83811015610fa057600082610f118582898987818110610ef757610ef76124c3565b9050602002016020810190610f0c91906124f2565b611b8e565b9450915081610f1f82611ce5565b610f2886611ce5565b610f3186611ce5565b604051602001610f439392919061252f565b60405160208183030381529060405290610f8a576040517f08c379a00000000000000000000000000000000000000000000000000000000081526004016105a691906120b6565b5050508080610f989061261e565b915050610ed5565b50817f000000000000000000000000000000000000000000000000000000000000000060108110610fd357610fd36124c3565b602002015160ff1615611042576040517f08c379a000000000000000000000000000000000000000000000000000000000815260206004820152601960248201527f696e76616c696420736f6c7574696f6e2028636172726574290000000000000060448201526064016105a6565b60005b7f000000000000000000000000000000000000000000000000000000000000000081101561110b57611078816001612656565b83826010811061108a5761108a6124c3565b602002015160ff16146110f9576040517f08c379a000000000000000000000000000000000000000000000000000000000815260206004820152601460248201527f696e76616c696420736f6c7574696f6e20312f3200000000000000000000000060448201526064016105a6565b806111038161261e565b915050611045565b5060006111397f00000000000000000000000000000000000000000000000000000000000000006001612656565b90505b60108110156111d95780838260108110611158576111586124c3565b602002015160ff16146111c7576040517f08c379a000000000000000000000000000000000000000000000000000000000815260206004820152601460248201527f696e76616c696420736f6c7574696f6e20322f3200000000000000000000000060448201526064016105a6565b806111d18161261e565b91505061113c565b5060055415806111ea575060055483105b611250576040517f08c379a000000000000000000000000000000000000000000000000000000000815260206004820152601060248201527f4d414b455f4245545445525f4d4f56450000000000000000000000000000000060448201526064016105a6565b60058390556106f53384611a65565b6040805160208082528183019092526060916000919060208201818036833701905050905060005b60208110156112f9578381602081106112a2576112a26124c3565b1a60f81b8282815181106112b8576112b86124c3565b60200101907effffffffffffffffffffffffffffffffffffffffffffffffffffffffffffff1916908160001a905350806112f18161261e565b915050611287565b50604080518082018252601081527f30313233343536373839616263646566000000000000000000000000000000006020820152815182815260608101835290916000919060208201818036833701905050905060005b60208110156114e25782600485838151811061136e5761136e6124c3565b016020015182517fff0000000000000000000000000000000000000000000000000000000000000090911690911c60f81c9081106113ae576113ae6124c3565b01602001517fff0000000000000000000000000000000000000000000000000000000000000016826113e1836002612669565b815181106113f1576113f16124c3565b60200101907effffffffffffffffffffffffffffffffffffffffffffffffffffffffffffff1916908160001a90535082848281518110611433576114336124c3565b602091010151815160f89190911c600f16908110611453576114536124c3565b01602001517fff000000000000000000000000000000000000000000000000000000000000001682611486836002612669565b611491906001612656565b815181106114a1576114a16124c3565b60200101907effffffffffffffffffffffffffffffffffffffffffffffffffffffffffffff1916908160001a905350806114da8161261e565b915050611350565b50949350505050565b60408051808201909152601281527f566974616c696b277325323073656372657400000000000000000000000000006020820152606090808061152d85611ce5565b60405160200161153f93929190612680565b604051602081830303815290604052915050919050565b60608167ffffffffffffffff8111156115715761157161223f565b6040519080825280602002602001820160405280156115b657816020015b604080518082019091526000808252602082015281526020019060019003908161158f5790505b50905060005b828110156116865760008060008686858181106115db576115db6124c3565b90506020020135815260200190815260200160002054905080838381518110611606576116066124c3565b60200260200101516000019073ffffffffffffffffffffffffffffffffffffffff16908173ffffffffffffffffffffffffffffffffffffffff168152505060b881901c67ffffffffffffffff16838381518110611665576116656124c3565b6020908102919091018101510152508061167e8161261e565b9150506115bc565b5092915050565b611695611fd7565b61169d611fd7565b60006116ab600160106128db565b905060008282601081106116c1576116c16124c3565b60ff909216602092909202015260005b81811015611715576116e4816001612656565b8382601081106116f6576116f66124c3565b60ff90921660209290920201528061170d8161261e565b9150506116d1565b50602a60005b828110156117f057600061172f82856128db565b6040805160208101869052016040516020818303038152906040528051906020012060001c61175e919061291d565b6117689083612656565b9050600085826010811061177e5761177e6124c3565b60200201519050858360108110611797576117976124c3565b60200201518683601081106117ae576117ae6124c3565b60ff9092166020929092020152808684601081106117ce576117ce6124c3565b60ff9092166020929092020152508190506117e88161261e565b91505061171b565b50919392505050565b601883901c600061180b856001612656565b905081601882901c1461184a576040517fadc1557200000000000000000000000000000000000000000000000000000000815260040160405180910390fd5b73ffffffffffffffffffffffffffffffffffffffff841661189757600083815260208190526040902060a082901b73ffffffffffffffffffffffffffffffffffffffff881617905561191f565b60008381526020818152604080832073ffffffffffffffffffffffffffffffffffffffff8a811660a087901b177f800000000000000000000000000000000000000000000000000000000000000017909155600390925290912080547fffffffffffffffffffffffff0000000000000000000000000000000000000000169186169190911790555b828473ffffffffffffffffffffffffffffffffffffffff168773ffffffffffffffffffffffffffffffffffffffff167f8c5be1e5ebec7d5bd14f71427d1e84f3dd0314c0f7b2291e5b200ac8c7c3b92560405160405180910390a4505050505050565b73ffffffffffffffffffffffffffffffffffffffff83166000908152600160208190526040909120805490910190558015611a035773ffffffffffffffffffffffffffffffffffffffff8416600090815260016020526040902080547fffffffffffffffffffffffffffffffffffffffffffffffffffffffffffffffff0190555b6000828152602081905260408082204360b81b73ffffffffffffffffffffffffffffffffffffffff80881691821790925591518593918816917fddf252ad1be2c89b69c2b068fc378daa952ba7f163c4a11628f55a4df523b3ef91a450505050565b610baa60008383600060405180602001604052806000815250611b1b565b73ffffffffffffffffffffffffffffffffffffffff83811660008181526002602090815260408083209487168084529482529182902080547fffffffffffffffffffffffffffffffffffffffffffffffffffffffffffffff001686151590811790915591519182527f17307eab39ab6107e8899845ad3d59bd9653f200f220920489ca2b5937696c31910160405180910390a3505050565b611b2785858585611982565b73ffffffffffffffffffffffffffffffffffffffff84163b15611b8757611b513386868685611da3565b611b87576040517f4e472e5e00000000000000000000000000000000000000000000000000000000815260040160405180910390fd5b5050505050565b60008080611b9d60048661291d565b90506000611bac600487612931565b90506000856003811115611bc257611bc2612945565b03611c1157611bd3600160046128db565b821015611c0c576001935081611bea600483612669565b611bf49190612656565b611bff906001612656565b9250611c0c878785611e78565b611cdb565b6001856003811115611c2557611c25612945565b03611c6257611c36600160046128db565b811015611c0c5760019350816004611c4e8387612656565b611c589190612669565b611bff9190612656565b6002856003811115611c7657611c76612945565b03611ca6578115611c0c57600193508382611c92600484612669565b611c9c9190612656565b611bff91906128db565b6003856003811115611cba57611cba612945565b03611cd6578015611c0c5760019350816004611c4e86846128db565b600093505b5050935093915050565b60606000611cf283611ef5565b600101905060008167ffffffffffffffff811115611d1257611d1261223f565b6040519080825280601f01601f191660200182016040528015611d3c576020820181803683370190505b5090508181016020015b7fffffffffffffffffffffffffffffffffffffffffffffffffffffffffffffffff017f3031323334353637383961626364656600000000000000000000000000000000600a86061a8153600a8504945084611d4657509392505050565b6000808473ffffffffffffffffffffffffffffffffffffffff1663150b7a02888887876040518563ffffffff1660e01b8152600401611de59493929190612974565b6020604051808303816000875af1158015611e04573d6000803e3d6000fd5b505050506040513d601f19601f82011682018060405250810190611e2891906129bd565b7fffffffff00000000000000000000000000000000000000000000000000000000167f150b7a02000000000000000000000000000000000000000000000000000000001491505095945050505050565b6000838360108110611e8c57611e8c6124c3565b602002015190506000848360108110611ea757611ea76124c3565b6020020151905080858560108110611ec157611ec16124c3565b60ff909216602092909202015281858460108110611ee157611ee16124c3565b60ff90921660209290920201525050505050565b6000807a184f03e93ff9f4daa797ed6e38ed64bf6a1f0100000000000000008310611f3e577a184f03e93ff9f4daa797ed6e38ed64bf6a1f010000000000000000830492506040015b6d04ee2d6d415b85acef81000000008310611f6a576d04ee2d6d415b85acef8100000000830492506020015b662386f26fc100008310611f8857662386f26fc10000830492506010015b6305f5e1008310611fa0576305f5e100830492506008015b6127108310611fb457612710830492506004015b60648310611fc6576064830492506002015b600a83106105205760010192915050565b6040518061020001604052806010906020820280368337509192915050565b7fffffffff000000000000000000000000000000000000000000000000000000008116811461099e57600080fd5b60006020828403121561203657600080fd5b813561204181611ff6565b9392505050565b60005b8381101561206357818101518382015260200161204b565b50506000910152565b60008151808452612084816020860160208601612048565b601f017fffffffffffffffffffffffffffffffffffffffffffffffffffffffffffffffe0169290920160200192915050565b602081526000612041602083018461206c565b6000602082840312156120db57600080fd5b5035919050565b803573ffffffffffffffffffffffffffffffffffffffff81168114610a2057600080fd5b6000806040838503121561211957600080fd5b612122836120e2565b946020939093013593505050565b60008060006060848603121561214557600080fd5b61214e846120e2565b925061215c602085016120e2565b9150604084013590509250925092565b60006020828403121561217e57600080fd5b612041826120e2565b60008060006040848603121561219c57600080fd5b83359250602084013567ffffffffffffffff808211156121bb57600080fd5b818601915086601f8301126121cf57600080fd5b8135818111156121de57600080fd5b8760208285010111156121f057600080fd5b6020830194508093505050509250925092565b6000806040838503121561221657600080fd5b61221f836120e2565b91506020830135801515811461223457600080fd5b809150509250929050565b7f4e487b7100000000000000000000000000000000000000000000000000000000600052604160045260246000fd5b6000806000806080858703121561228457600080fd5b61228d856120e2565b935061229b602086016120e2565b925060408501359150606085013567ffffffffffffffff808211156122bf57600080fd5b818701915087601f8301126122d357600080fd5b8135818111156122e5576122e561223f565b604051601f82017fffffffffffffffffffffffffffffffffffffffffffffffffffffffffffffffe0908116603f0116810190838211818310171561232b5761232b61223f565b816040528281528a602084870101111561234457600080fd5b82602086016020830137600060208483010152809550505050505092959194509250565b60008083601f84011261237a57600080fd5b50813567ffffffffffffffff81111561239257600080fd5b6020830191508360208260051b85010111156123ad57600080fd5b9250929050565b600080602083850312156123c757600080fd5b823567ffffffffffffffff8111156123de57600080fd5b6123ea85828601612368565b90969095509350505050565b6000806040838503121561240957600080fd5b612412836120e2565b9150612420602084016120e2565b90509250929050565b602080825282518282018190526000919060409081850190868401855b82811015612481578151805173ffffffffffffffffffffffffffffffffffffffff168552860151868501529284019290850190600101612446565b5091979650505050505050565b6102008101818360005b60108110156124ba57815160ff16835260209283019290910190600101612498565b50505092915050565b7f4e487b7100000000000000000000000000000000000000000000000000000000600052603260045260246000fd5b60006020828403121561250457600080fd5b81356004811061204157600080fd5b60008151612525818560208601612048565b9290920192915050565b7f696e76616c696420000000000000000000000000000000000000000000000000815260008451612567816008850160208901612048565b7f203d3e200000000000000000000000000000000000000000000000000000000060089184019182015284516125a481600c840160208901612048565b7f203a200000000000000000000000000000000000000000000000000000000000600c929091019182015283516125e281600f840160208801612048565b01600f0195945050505050565b7f4e487b7100000000000000000000000000000000000000000000000000000000600052601160045260246000fd5b60007fffffffffffffffffffffffffffffffffffffffffffffffffffffffffffffffff820361264f5761264f6125ef565b5060010190565b80820180821115610520576105206125ef565b8082028115828204841417610520576105206125ef565b7f646174613a6170706c69636174696f6e2f6a736f6e2c7b226e616d65223a22008152600084516126b881601f850160208901612048565b7f222c226465736372697074696f6e223a22000000000000000000000000000000601f9184019182015284516126f5816030840160208901612048565b7f222c22696d616765223a22000000000000000000000000000000000000000000603092909101918201527f646174613a696d6167652f7376672b786d6c2c3c737667253235323076696577603b8201527f426f783d27302532353230302532353230333225323532303136272532353230605b8201527f786d6c6e733d27687474703a2f2f7777772e77332e6f72672f323030302f7376607b8201527f67273e3c746578742532353230783d27353025272532353230793d2735302527609b8201527f2532353230646f6d696e616e742d626173656c696e653d276d6964646c65272560bb8201527f32353230746578742d616e63686f723d276d6964646c6527253235323073747960db8201527f6c653d2766696c6c3a726762283231392c33392c313139293b666f6e742d736960fb8201527f7a653a3270783b273e000000000000000000000000000000000000000000000061011b82015261285f610124820185612513565b7f253230000000000000000000000000000000000000000000000000000000000081527f6d6f76657300000000000000000000000000000000000000000000000000000060038201527f3c2f746578743e3c2f7376673e227d000000000000000000000000000000000060088201526017019695505050505050565b81810381811115610520576105206125ef565b7f4e487b7100000000000000000000000000000000000000000000000000000000600052601260045260246000fd5b60008261292c5761292c6128ee565b500690565b600082612940576129406128ee565b500490565b7f4e487b7100000000000000000000000000000000000000000000000000000000600052602160045260246000fd5b600073ffffffffffffffffffffffffffffffffffffffff8087168352808616602084015250836040830152608060608301526129b3608083018461206c565b9695505050505050565b6000602082840312156129cf57600080fd5b815161204181611ff656fea264697066735822122044fd203d8a48c579365d9a5e6523c3f0258852ed8f8cd11381a76a12110a1baa64736f6c63430008140033",
  "linkReferences": {},
  "deployedLinkReferences": {},
  "devdoc": {
    "errors": {
      "InvalidAddress(address)": [
        {
          "params": {
            "addr": "invalid address"
          }
        }
      ],
      "NonExistentToken(uint256)": [
        {
          "params": {
            "tokenID": "id of the expected token"
          }
        }
      ],
      "NotOwner(address,address)": [
        {
          "params": {
            "currentOwner": "the current owner",
            "provided": "the address expected to be the current owner"
          }
        }
      ]
    },
    "events": {
      "Approval(address,address,uint256)": {
        "params": {
          "approved": "account who can know transfer on the owner's behalf",
          "owner": "current owner of the token",
          "tokenID": "id of the token being approved"
        }
      },
      "ApprovalForAll(address,address,bool)": {
        "params": {
          "approved": "whether it is approved or not",
          "operator": "account who can know transfer on the owner's behalf",
          "owner": "the account granting rights over all of its token"
        }
      },
      "Transfer(address,address,uint256)": {
        "params": {
          "from": "the account the token is sent from",
          "to": "the account the token is sent to",
          "tokenID": "id of the token being sent"
        }
      }
    },
    "kind": "dev",
    "methods": {
      "approve(address,uint256)": {
        "params": {
          "operator": "The address receiving the approval.",
          "tokenID": "The id of the token."
        }
      },
      "balanceOf(address)": {
        "params": {
          "owner": "The address to look for."
        },
        "returns": {
          "balance": "The number of tokens owned by the address."
        }
      },
      "getApproved(uint256)": {
        "params": {
          "tokenID": "The id of the token."
        },
        "returns": {
          "operator": "The address of the operator."
        }
      },
      "isApprovedForAll(address,address)": {
        "params": {
          "operator": "The address of the operator.",
          "owner": "The address of the owner."
        },
        "returns": {
          "isOperator": "The status of the approval."
        }
      },
      "ownerAndLastTransferBlockNumberList(uint256[])": {
        "params": {
          "tokenIDs": "The list of token ids to check."
        },
        "returns": {
          "ownersData": "The list of (owner, lastTransferBlockNumber) for each ids given as input."
        }
      },
      "ownerAndLastTransferBlockNumberOf(uint256)": {
        "params": {
          "tokenID": "The id of the token."
        },
        "returns": {
          "blockNumber": "The blocknumber at which the last transfer of that id happened.",
          "owner": "The address of the token owner."
        }
      },
      "ownerOf(uint256)": {
        "params": {
          "tokenID": "The id of the token."
        },
        "returns": {
          "owner": "The address of the token owner."
        }
      },
      "safeTransferFrom(address,address,uint256)": {
        "params": {
          "from": "The send of the token.",
          "to": "The recipient of the token.",
          "tokenID": "The id of the token."
        }
      },
      "safeTransferFrom(address,address,uint256,bytes)": {
        "params": {
          "data": "Additional data.",
          "from": "The sender of the token.",
          "to": "The recipient of the token.",
          "tokenID": "The id of the token."
        }
      },
      "setApprovalForAll(address,bool)": {
        "params": {
          "approved": "The determination of the approval.",
          "operator": "The address receiving the approval."
        }
      },
      "supportsInterface(bytes4)": {
        "details": "Interface identification is specified in ERC-165. This function  uses less than 30,000 gas.",
        "params": {
          "interfaceID": "The interface identifier, as specified in ERC-165"
        },
        "returns": {
          "_0": "`true` if the contract implements `interfaceID` and  `interfaceID` is not 0xffffffff, `false` otherwise"
        }
      },
      "tokenURI(uint256)": {
        "details": "Throws if `tokenID` is not a valid NFT. URIs are defined in RFC  3986. The URI may point to a JSON file that conforms to the \"ERC721  Metadata JSON Schema\".",
        "params": {
          "tokenID": "id of the token being queried."
        }
      },
      "transferFrom(address,address,uint256)": {
        "params": {
          "from": "The sender of the token.",
          "to": "The recipient of the token.",
          "tokenID": "The id of the token."
        }
      }
    },
    "version": 1
  },
  "evm": {
    "gasEstimates": {
      "creation": {
        "codeDepositCost": "2153600",
        "executionCost": "infinite",
        "totalCost": "infinite"
      },
      "external": {
        "SIZE()": "262",
        "approve(address,uint256)": "53543",
        "balanceOf(address)": "2620",
        "bytes32ToHexString(bytes32)": "infinite",
        "getApproved(uint256)": "4746",
        "isApprovedForAll(address,address)": "infinite",
        "lowestNumberOfMoves()": "2383",
        "name()": "infinite",
        "ownerAndLastTransferBlockNumberList(uint256[])": "infinite",
        "ownerAndLastTransferBlockNumberOf(uint256)": "2585",
        "ownerOf(uint256)": "2535",
        "proposeSolution(uint8[])": "infinite",
        "proposeSolutionProof(uint256,bytes)": "infinite",
        "randomState()": "infinite",
        "safeTransferFrom(address,address,uint256)": "infinite",
        "safeTransferFrom(address,address,uint256,bytes)": "infinite",
        "setApprovalForAll(address,bool)": "26665",
        "supportsInterface(bytes4)": "479",
        "symbol()": "infinite",
        "testMint(uint256)": "infinite",
        "tokenURI(uint256)": "infinite",
        "transferFrom(address,address,uint256)": "infinite"
      },
      "internal": {
        "_swap(uint8[16] memory,uint256,uint256)": "infinite",
        "randomSeed()": "infinite",
        "step(uint8[16] memory,uint256,enum VitalikSecret.Move)": "infinite"
      }
    }
  },
  "storageLayout": {
    "storage": [
      {
        "astId": 1450,
        "contract": "src/VitalikSecret.sol:VitalikSecret",
        "label": "_owners",
        "offset": 0,
        "slot": "0",
        "type": "t_mapping(t_uint256,t_uint256)"
      },
      {
        "astId": 1454,
        "contract": "src/VitalikSecret.sol:VitalikSecret",
        "label": "_balances",
        "offset": 0,
        "slot": "1",
        "type": "t_mapping(t_address,t_uint256)"
      },
      {
        "astId": 1460,
        "contract": "src/VitalikSecret.sol:VitalikSecret",
        "label": "_operatorsForAll",
        "offset": 0,
        "slot": "2",
        "type": "t_mapping(t_address,t_mapping(t_address,t_bool))"
      },
      {
        "astId": 1464,
        "contract": "src/VitalikSecret.sol:VitalikSecret",
        "label": "_operators",
        "offset": 0,
        "slot": "3",
        "type": "t_mapping(t_uint256,t_address)"
      },
      {
        "astId": 3021,
        "contract": "src/VitalikSecret.sol:VitalikSecret",
        "label": "zecret",
        "offset": 0,
        "slot": "4",
        "type": "t_contract(UltraVerifier)4599"
      },
      {
        "astId": 3037,
        "contract": "src/VitalikSecret.sol:VitalikSecret",
        "label": "lowestNumberOfMoves",
        "offset": 0,
        "slot": "5",
        "type": "t_uint256"
      }
    ],
    "types": {
      "t_address": {
        "encoding": "inplace",
        "label": "address",
        "numberOfBytes": "20"
      },
      "t_bool": {
        "encoding": "inplace",
        "label": "bool",
        "numberOfBytes": "1"
      },
      "t_contract(UltraVerifier)4599": {
        "encoding": "inplace",
        "label": "contract UltraVerifier",
        "numberOfBytes": "20"
      },
      "t_mapping(t_address,t_bool)": {
        "encoding": "mapping",
        "key": "t_address",
        "label": "mapping(address => bool)",
        "numberOfBytes": "32",
        "value": "t_bool"
      },
      "t_mapping(t_address,t_mapping(t_address,t_bool))": {
        "encoding": "mapping",
        "key": "t_address",
        "label": "mapping(address => mapping(address => bool))",
        "numberOfBytes": "32",
        "value": "t_mapping(t_address,t_bool)"
      },
      "t_mapping(t_address,t_uint256)": {
        "encoding": "mapping",
        "key": "t_address",
        "label": "mapping(address => uint256)",
        "numberOfBytes": "32",
        "value": "t_uint256"
      },
      "t_mapping(t_uint256,t_address)": {
        "encoding": "mapping",
        "key": "t_uint256",
        "label": "mapping(uint256 => address)",
        "numberOfBytes": "32",
        "value": "t_address"
      },
      "t_mapping(t_uint256,t_uint256)": {
        "encoding": "mapping",
        "key": "t_uint256",
        "label": "mapping(uint256 => uint256)",
        "numberOfBytes": "32",
        "value": "t_uint256"
      },
      "t_uint256": {
        "encoding": "inplace",
        "label": "uint256",
        "numberOfBytes": "32"
      }
    }
  },
  "userdoc": {
    "errors": {
      "InvalidAddress(address)": [
        {
          "notice": "An invalid address is specified (for example: zero address)"
        }
      ],
      "NonExistentToken(uint256)": [
        {
          "notice": "The token does not exist"
        }
      ],
      "NonceOverflow()": [
        {
          "notice": "The Nonce overflowed, make a transfer to self to allow new nonces."
        }
      ],
      "NotAuthorized()": [
        {
          "notice": "Not authorized to perform this operation"
        }
      ],
      "NotOwner(address,address)": [
        {
          "notice": "The address from which the token is sent is not the current owner"
        }
      ],
      "TransferRejected()": [
        {
          "notice": "The Transfer was rejected by the destination"
        }
      ]
    },
    "events": {
      "Approval(address,address,uint256)": {
        "notice": "Triggered when a token is approved to be sent by another account  Note tat the approval get reset when a Transfer event for that same token is emitted."
      },
      "ApprovalForAll(address,address,bool)": {
        "notice": "Triggered when an account approve or disaprove another to transfer on its behalf"
      },
      "Transfer(address,address,uint256)": {
        "notice": "Triggered when a token is transferred"
      }
    },
    "kind": "user",
    "methods": {
      "approve(address,uint256)": {
        "notice": "Approve an operator to transfer a specific token on the senders behalf."
      },
      "balanceOf(address)": {
        "notice": "Get the number of tokens owned by an address."
      },
      "getApproved(uint256)": {
        "notice": "Get the approved operator for a specific token."
      },
      "isApprovedForAll(address,address)": {
        "notice": "Check if the sender approved the operator to transfer any of its tokens."
      },
      "name()": {
        "notice": "A descriptive name for a collection of NFTs in this contract"
      },
      "ownerAndLastTransferBlockNumberList(uint256[])": {
        "notice": "Get the list of owner of a token and the blockNumber of its last transfer, useful to voting mechanism."
      },
      "ownerAndLastTransferBlockNumberOf(uint256)": {
        "notice": "Get the owner of a token and the blockNumber of the last transfer, useful to voting mechanism."
      },
      "ownerOf(uint256)": {
        "notice": "Get the owner of a token."
      },
      "safeTransferFrom(address,address,uint256)": {
        "notice": "Transfer a token between 2 addresses letting the receiver know of the transfer."
      },
      "safeTransferFrom(address,address,uint256,bytes)": {
        "notice": "Transfer a token between 2 addresses letting the receiver knows of the transfer."
      },
      "setApprovalForAll(address,bool)": {
        "notice": "Set the approval for an operator to manage all the tokens of the sender."
      },
      "supportsInterface(bytes4)": {
        "notice": "Query if a contract implements an interface"
      },
      "symbol()": {
        "notice": "An abbreviated name for NFTs in this contract"
      },
      "tokenURI(uint256)": {
        "notice": "A distinct Uniform Resource Identifier (URI) for a given asset."
      },
      "transferFrom(address,address,uint256)": {
        "notice": "Transfer a token between 2 addresses."
      }
    },
    "notice": "a puzzle",
    "version": 1
  },
  "argsData": "0x",
  "transaction": {
    "hash": "0x7ecf7a89ddd89a2700ace7029a537ff3286b217ac70ae6e87a5c0bd368c5b7d3",
    "nonce": "0x2",
    "origin": "0x61c461ecc993aadeb7e4b47e96d1b8cc37314b20"
  }
}